1000007761GREAT LAKES INDEPENDENT BOOKSELLERSVENDOR     
1000007781BUSINESS WIRE INC                  VENDOR     
1000021154PAUL WEISS RIFKIND WHARTON & GARRISVENDOR     
1000025905DATASTRONG LLC                     VENDOR     
1000026197ROBOTS AND CUPCAKES LLC            VENDOR     
1000026413KINNERET ZMORA BITAN DVIR PUBLISHINVENDOR     
2000025210MARIAN A RYAN                      VENDOR     
A23754    KINNERET ZMORA BITAN DVIR PUBLISHINVENDOR     
ASMASM    ASSEMBLY DEPT CARRIER              CARRIERKITB
CALL      Call Customer for Instructions     CARRIERCALL
ROADRUNNERROADRUNNER LTL                     CARRIERRDFS
SAIA      SAIA LTL FREIGHT                   CARRIERSAIA
SEKO AIR  SEKO INTERNATIONAL AIR             CARRIERSEKW
UPSF      UPS Freight                        CARRIERUPGF
VITRAN    Vitran Express                     CARRIERVITR
1000000944CINTAS CORPORATION                 VENDOR     
1000001799K HOVING RECYCLING & DISPOSAL INC  VENDOR     
1000013685OZARKA                             VENDOR     
1000014775YAY DESIGN LLC                     VENDOR     
1000016348CENGAGE LEARNING                   VENDOR     
1000018590SHRED-IT AUSTIN                    VENDOR     
1000023807CINTAS CORPORATION NO 2            VENDOR     
1000024148AGATE PUBLISHING INC               VENDOR     
10000263982M COMMUNICATIONS LTD              VENDOR     
1000026399ST JOSEPH INSTITUTION INTL         VENDOR     
1000026430TBI INC                            VENDOR     
2000023278JAMES M DEEM                       VENDOR     
2000024380KAREN SHERMAN                      VENDOR     
2000029559MARK BABUSHKIN                     VENDOR     
2000029719DORIS SAMPSON                      VENDOR     
2000030927DAVID L STIENECKER                 VENDOR     
2000033821ELLEN VEDORA                       VENDOR     
2000034686PAUL FELIX                         VENDOR     
2000034687MARIA VICTORIA LOURDES CERUTTI     VENDOR     
5000000094C & C OFFSET PRINTING              VENDOR     
A01876    CURTIS BROWN LTD                   VENDOR     
A08973    DEEM JAMES M                       VENDOR     
A14224    KRIEGER LARRY S                    VENDOR     
A14376    PAVLIK ROBERT A                    VENDOR     
A20962    SHANNON ASSOCIATES LLC             VENDOR     
A22265    MASON MARGARET                     VENDOR     
A22314    MORTENSEN LORI A                   VENDOR     
ASMASM    Assembly Dept. Kitting Order       CARRIERKITB
PILOT 1DAYPilot Next Day Air                 CARRIERPAAF
ROADRUNNERROADRUNNER LTL                     CARRIERRDFS
SAIA      SAIA LTL FREIGHT                   CARRIERSAIA
SEKO AIR  Seko International Air             CARRIERSEKW
SEKO OCEANSEKO INTERNATIONAL OCEAN           CARRIERSEKW
UPSF      UPS Freight                        CARRIERUPGF
VITRAN    Vitran Express                     CARRIERVITR
1000000089SEATTLE TIMES COMPANY              VENDOR     
1000000294AMER ASSOC ADVANCEMENT SCIENCE     VENDOR     
1000000295AMER ASSOC ADVANCEMENT SCIENCE     VENDOR     
1000003906OXFORD UNIVERSITY PRESS INDIA      VENDOR     
1000004653DON CONGDON ASSOCIATES INC         VENDOR     
1000004992CONNECTICUT READING ASSOCIATION    VENDOR     
1000005899NAYLOR PUBLICATIONS                VENDOR     
1000005909AMERICAN ASSN FOR ADVANCEMENT OF SCVENDOR     
1000008058MACMILLAN PUBLISHERS LTD           VENDOR     
1000015641SKINNER PLUMBING & HEATING CORP    VENDOR     
1000017172RECEIVER GENERAL FOR CANADA        VENDOR     
1000022038CATALOG SOLUTIONS INC              VENDOR     
1000026414WARREN INDUSTRIES INC              VENDOR     
1000026435CHICAGO BLACKHAWKS CHARITIES       VENDOR     
1000026436WINGS PROGRAM INC                  VENDOR     
1000026437APAC CUSTOMER SERVICES INC         VENDOR     
1000026438THE GOSS GROUP INC                 VENDOR     
1000026439FINANCIAL INDUSTRIAL REGULATORY    VENDOR     
2000009222MARCIA CARLSON                     VENDOR     
2000010021TODD FRANCE                        VENDOR     
2000034716CHARLES PITMAN BAKER IV            VENDOR     
4000000956THE RECEIVER GENERAL               VENDOR     
5000002324EMBASSY GRAPHICS                   VENDOR     
6000005275HELEN BURNINGHAM OXENBURY          VENDOR     
A22656    HINDS GARETH                       VENDOR     
ASMASM    ASSEMBLY DEPT CARRIER              CARRIERKITB
CALL      CALL CUSTOMER FOR INSTRUCTIONS     CARRIERCALL
CALL FOL  Call Follett 888-618-7447          CARRIERCALL
CALLOXFORDCALL OXFORD/905 882 4880           CARRIERCALL
ROADRUNNERROADRUNNER LTL                     CARRIERRDFS
SAIA      SAIA LTL FREIGHT                   CARRIERSAIA
SEKO OCEANSeko International Ocean           CARRIERSEKW
UPSF      UPS Freight                        CARRIERUPGF
VITRAN    Vitran Express                     CARRIERVITR
YRC       Yellow Roadway Corporation         CARRIERRDWY
1000005612M ZION SECURITY SYSTEMS CORP       VENDOR     
1000008058MACMILLAN PUBLISHERS LTD           VENDOR     
1000026423CHG VALLEY  FORGE LP               VENDOR     
1000026440LINDQUIST PLUMBING & SUPPLY CO INC VENDOR     
2000017278VERN L LINDQUIST                   VENDOR     
2000030443JOHN R MCKERNAN JR                 VENDOR     
2000033050JOHN F KILLIAN                     VENDOR     
2000034717TIMOTHY JAY BOALS                  VENDOR     
2000034718EDUARDO APARICIO                   VENDOR     
2000034719MARIANA CASTRO                     VENDOR     
2000034725PAULA A WHITE                      VENDOR     
3000006851JOHN KILLIAN                       VENDOR     
5000000691R R DONNELLEY RECEIVABLES INC      VENDOR     
A01476    UNIVERSITY OF IOWA                 VENDOR     
A12893    BILOW LYNDA DURRANT                VENDOR     
ASMASM    Assembly Dept. Kitting Order       CARRIERKITB
CALL      Call Customer for Instructions     CARRIERCALL
CALL FOL  CALL FOLLETT 888-618-7447          CARRIERCALL
PILOT 1DAYPilot Next Day Air                 CARRIERPAAF
ROADRUNNERROADRUNNER LTL                     CARRIERRDFS
SAIA      SAIA LTL FREIGHT                   CARRIERSAIA
VITRAN    Vitran Express                     CARRIERVITR
1000000479TESOL                              VENDOR     
1000000480TEACHERS OF ENGLISH TO SPEAKERS OF VENDOR     
1000001879NEVADA ASSN OF SCH ADMINISTRATORS  VENDOR     
1000018339ARKANSAS ASSN OF CONTINUING & ADULTVENDOR     
1000019549IND SCHOOL DISTRICT 191            VENDOR     
1000022787MSI - MECHANICAL SERVICES INC      VENDOR     
1000023275BOSTON AUTHORS CLUB                VENDOR     
1000025606CAPITOL ADVISORS LLC               VENDOR     
1000026431SILVER FOX PRODUCTIONS INC         VENDOR     
1000026437APAC CUSTOMER SERVICES INC         VENDOR     
2000018381CATHERINE KEAY                     VENDOR     
2000034682KAREN KAWAGUCHI                    VENDOR     
2000034688ALAN DANIEL WONG                   VENDOR     
4000000975SCOTT RANDOLPH                     VENDOR     
6000000074BERNARD WEISS                      VENDOR     
6000000305RAYMOND E DAVIS                    VENDOR     
6000000840ROBERT FREEDMAN JR                 VENDOR     
6000002970KURT CYRUS                         VENDOR     
6000003265RANDY WHITFIELD                    VENDOR     
6000003451MARGOT P LIBERTY                   VENDOR     
6000003733DOUG CUSHMAN                       VENDOR     
6000004223JUDY NYBERG                        VENDOR     
6000004927PETER MORDVINOFF                   VENDOR     
6000004991ROBERT NEUHAUS                     VENDOR     
6000005659HELENE M BUCHMAN                   VENDOR     
A22477    ZALLINGER FAMILY LLC               VENDOR     
A23771    EDEN STREET LITERARY               VENDOR     
A23773    SUSAN SCHULMAN LITERARY AGENCY     VENDOR     
ASMASM    ASSEMBLY DEPT CARRIER              CARRIERKITB
CALLOXFORDCALL OXFORD/905 882 4880           CARRIERCALL
PILOT 1DAYPilot Next Day Air                 CARRIERPAAF
ROADRUNNERRoadrunner LTL                     CARRIERRDFS
SAIA      SAIA LTL FREIGHT                   CARRIERSAIA
SEKO AIR  SEKO INTERNATIONAL AIR             CARRIERSEKW
UPSF      UPS FREIGHT (LTL ONLY)             CARRIERUPGF
VITRAN    Vitran Express                     CARRIERVITR
YRC       YELLOW ROADWAY CORPORATION         CARRIERRDWY
5000000000LEARNING COMPANY                   VENDOR     
5000000001TECHNICOLOR CREATIVE SERVICES US INVENDOR     
5000000002US TOY COMPANY INC                 VENDOR     
5000000003TUSCARORA INC                      VENDOR     
5000000004TWP AMERICA INC                    VENDOR     
5000000005TIEN WAH PRESS                     VENDOR     
5000000006DISCOVERY LICENSING INC            VENDOR     
5000000007ULINE                              VENDOR     
5000000008UNIVERSAL MUSIC AND VIDEO DIST     VENDOR     
5000000009UNIVERSAL PRINTING                 VENDOR     
5000000010UNITED LITHOGRAPH CO               VENDOR     
5000000011UNIVENTURE                         VENDOR     
5000000012UNCOMMON RESOURCES INC             VENDOR     
5000000013ALLIED VAUGHN                      VENDOR     
5000000014HIGH SPEED VIDEO                   VENDOR     
5000000015PENGUIN BOOKS LTD                  VENDOR     
5000000016VICTOR GRAPHICS INC                VENDOR     
5000000017VON HOFFMANN CORPORATION           VENDOR     
5000000018VON HOFFMANN- OWENSVILLE           VENDOR     
5000000019VICTOR ENVELOPE COMPANY            VENDOR     
5000000020VIDEO PUBLISHING GROUP INC         VENDOR     
5000000021BANTA ISG                          VENDOR     
5000000022PHOENIX COLOR CORP                 VENDOR     
5000000023VIVENDI UNIVERSAL INTERACTIVE PUBLIVENDOR     
5000000024ADVANCED INSTRUCTIONAL SYSTEMS INC VENDOR     
5000000025INTERNATIONAL PAPER                VENDOR     
5000000026CAPITAL CITY PRESS INC             VENDOR     
5000000027QUAD GRAPHICS PRINTING CORP        VENDOR     
5000000028HARPERCOLLINS PUBLISHERS           VENDOR     
5000000029WEBCRAFTERS INC                    VENDOR     
5000000030W E ANDREWS CO INC                 VENDOR     
5000000031WORK FORCE                         VENDOR     
5000000032WINTHROP PRINTING CO INC           VENDOR     
5000000033WALSWORTH PUBLISHING COMPANY INC   VENDOR     
5000000034KAGAN AND WOO                      VENDOR     
5000000035ARTECH PRINTING INC                VENDOR     
5000000036MAIL-WELL GRAPHICS                 VENDOR     
5000000037WORKMAN PUBLISHING CO              VENDOR     
5000000038WORKABILITIES                      VENDOR     
5000000039W W NORTON & COMPANY INC           VENDOR     
5000000040W W NORTON & CO                    VENDOR     
5000000041GLOBALWARE SOLUTIONS               VENDOR     
5000000042ABBOTT ACTION INC                  VENDOR     
5000000043ABBOTT ACTION INC                  VENDOR     
5000000044AMERICAN BUSINESS FORMS INC        VENDOR     
5000000045AMER PRINTING HOUSE                VENDOR     
5000000046PEARSON EDUCATION                  VENDOR     
5000000047ABCO                               VENDOR     
5000000048ACME PRINTING COMPANY              VENDOR     
5000000049ENNIS, INC                         VENDOR     
5000000050AJS PREMIER PRINTING               VENDOR     
5000000051AMERICAN LIBRARY ASSOCIATION       VENDOR     
5000000052ALBION PRESS LTD                   VENDOR     
5000000053AMES SPECIALTY PACKAGING           VENDOR     
5000000054AMHERST LABEL INC                  VENDOR     
5000000055ANDERSON LOCK CO LTD               VENDOR     
5000000056ANGEL LITHOGRAPHING CO             VENDOR     
5000000057AMERICAN ORTHOPSYCHIATRIC ASSOC    VENDOR     
5000000058ANDERSEN PRESS                     VENDOR     
5000000059QUEBECOR PTG/ MARTINSBURG          VENDOR     
5000000060UNIVERSITY OF HOUSTON              VENDOR     
5000000061ACADEMIC THERAPY PUBLICATIONS      VENDOR     
5000000062ACME UNITED CORPORATION            VENDOR     
5000000063ALL WEATHER PRODUCTS               VENDOR     
5000000064BRADFORD & BIGELOW INC             VENDOR     
5000000065BANTA COMPANY                      VENDOR     
5000000066VON HOFFMANN CORPORATION           VENDOR     
5000000067BANTA DIGITAL SERVICES             VENDOR     
5000000068BANTA DIGITAL SERVICES             VENDOR     
5000000069BANTA DIGITAL SERVICES             VENDOR     
5000000070BETA GRAPHICS                      VENDOR     
5000000071BEACON PMG                         VENDOR     
5000000072BEACON GROUP INC                   VENDOR     
5000000073BEVIN BROTHERS                     VENDOR     
5000000074BANTA BOOK GROUP                   VENDOR     
5000000075BJR ENTERPRISES                    VENDOR     
5000000076RRD-KAUKAUNA                       VENDOR     
5000000077QUEBECOR PRINTING VERMONT          VENDOR     
5000000078PAUL H BROOKES PUBLISHING CO       VENDOR     
5000000079BLACKBOURN                         VENDOR     
5000000080BRYANT LABEL                       VENDOR     
5000000081BRYANT LABEL                       VENDOR     
5000000082INTERNATIONAL PAPER                VENDOR     
5000000083BANTA BOOK COMPANY                 VENDOR     
5000000084BELMARK INC                        VENDOR     
5000000085BANTA CORPORATION  SOUTHEASTERN    VENDOR     
5000000086BANTA BOOK GROUP                   VENDOR     
5000000087BANTA ISG                          VENDOR     
5000000088BANTA SPECIALTY CONVERTING         VENDOR     
5000000089BANTA BOOK COMPANY                 VENDOR     
5000000090BATAVIA CONTAINER INC              VENDOR     
5000000091BERRYVILLE GRAPHICS INC            VENDOR     
5000000092BAYSTATE PRESS                     VENDOR     
5000000093CASE-HOYT CORP                     VENDOR     
5000000094C & C OFFSET PRINTING              VENDOR     
5000000095PURITAN PRESS INC                  VENDOR     
5000000096LEE & LOW BOOKS LLC                VENDOR     
5000000097ASEBA                              VENDOR     
5000000098COMMERCIAL COMMUNICATIONS INC      VENDOR     
5000000099CFKR CAREER MATERIALS              VENDOR     
5000000100COPY COP INC                       VENDOR     
5000000101COPY COP                           VENDOR     
5000000102CORPORATE DISK CO                  VENDOR     
5000000103CEV MULTIMEDIA                     VENDOR     
5000000104CENTER ON EDUCATION & WORK         VENDOR     
5000000105COLOR FILM CORP                    VENDOR     
5000000106COLOR FILM CORP VIDEO DIV          VENDOR     
5000000107CENTER HOUSE INC                   VENDOR     
5000000108CENTER HOUSE ENTERPRISE            VENDOR     
5000000109CHASE & SONS                       VENDOR     
5000000110CPS INC                            VENDOR     
5000000111COURIER COMPANIES INC              VENDOR     
5000000112CLARKE PRINTING                    VENDOR     
5000000113PROTOCOL                           VENDOR     
5000000114ETA/ CUISENAIRE                    VENDOR     
5000000115BANTA DIGITAL GROUP                VENDOR     
5000000116COURIER COMPANIES INC              VENDOR     
5000000117CINRAM INC                         VENDOR     
5000000118CONTAINER SERVICE CORP             VENDOR     
5000000119CAMBRIDGE SOFT CO                  VENDOR     
5000000120CREATIVE GRAPHICS INC              VENDOR     
5000000121CLAVA AMERICAN                     VENDOR     
5000000122CREATIVE PRINTING SERVICE INC      VENDOR     
5000000123COMMAND WEBB OFFSET                VENDOR     
5000000124CONWAY GREENE CO                   VENDOR     
5000000125DAHLSTROM DISPLAY INC              VENDOR     
5000000126DAAMEN INC                         VENDOR     
5000000127DELTA EDUCATION                    VENDOR     
5000000128DELTA EDUCATION, INC.              VENDOR     
5000000129DEERFIELD PRESS                    VENDOR     
5000000130DELL USA LP                        VENDOR     
5000000131DNP AMERICA LLC                    VENDOR     
5000000132RR DONNELLEY RECEIVABLES INC       VENDOR     
5000000133RRD-RECEIVABLES  INC               VENDOR     
5000000134DONNELLEY RECEIVABLES, IN          VENDOR     
5000000135DOMAIN AUDIO SERVICES LLC          VENDOR     
5000000136DATA RECOGNITION CORP              VENDOR     
5000000137DS GRAPHICS                        VENDOR     
5000000138FIBERMARK DSI                      VENDOR     
5000000139DATA REPRODUCTIONS CORP            VENDOR     
5000000140DUNN & CO INC                      VENDOR     
5000000141P&A GRAPHICS LLC                   VENDOR     
5000000142E & S BOX CO                       VENDOR     
5000000143ERIC ARMIN INC                     VENDOR     
5000000144EDWARDS BROTHERS                   VENDOR     
5000000145ECOLOGICAL FIBERS INC              VENDOR     
5000000146L'ECOLE DES LOISIRS                VENDOR     
5000000147WOLVERINE PRINTING                 VENDOR     
5000000148ED & PSYCH ASSOCIATES INC.         VENDOR     
5000000149ELWOOD PACKAGING                   VENDOR     
5000000150ELSEVIER SCIENCE                   VENDOR     
5000000151ADVANCED DUPLICATION SERVICES LLC  VENDOR     
5000000152EDUCATORS PUBLISHING SERVICE       VENDOR     
5000000153VERMILLION INC                     VENDOR     
5000000154A DAIGGER & COMPANY                VENDOR     
5000000155EVATONE                            VENDOR     
5000000156EUROPADISK                         VENDOR     
5000000157QUEBECOR PRTG/EUSEY PRESS INC      VENDOR     
5000000158EDUCATIONAL VIDEO GROUP            VENDOR     
5000000159EASTERN WIRE PRODUCTS              VENDOR     
5000000160VHPS                               VENDOR     
5000000161FRUEND CAN COMPANY                 VENDOR     
5000000162FIDELITY CONTAINER CORPORATION     VENDOR     
5000000163QUEBECOR PRINTING/FAIRFIELD        VENDOR     
5000000164FILMS FOR THE HUMANITIES & SCIENCESVENDOR     
5000000165FIRST IMPRESSION                   VENDOR     
5000000166FIRST IMPRESSION                   VENDOR     
5000000167QUEBECOR PRINTING KINGSPORT INC    VENDOR     
5000000168FLAMBEAU PRODUCTS CORPORATION      VENDOR     
5000000169FRIESEN PRINTERS                   VENDOR     
5000000170SUNBURST/KNOWLEDGE ADVENTURE       VENDOR     
5000000171FYI CAREER KIDS                    VENDOR     
5000000172GLEN BARD GRAPHICS INC             VENDOR     
5000000173GROLIER PUBLISHING                 VENDOR     
5000000174GENESIS PRESS                      VENDOR     
5000000175GINTZLER GRAPHICS INC              VENDOR     
5000000176GREAT LAKES MEDIA TECHNOLOGY       VENDOR     
5000000177RR DONNELLEY RECEIVABLES           VENDOR     
5000000178GUILFORD PUBLICATIONS INC          VENDOR     
5000000179RR DONNELLEY RECEIVABLES INC       VENDOR     
5000000180GREAT NORTHERN CONTAINER           VENDOR     
5000000181GRELIND PRINTING CENTER            VENDOR     
5000000182GTCO CALCOMP                       VENDOR     
5000000183G & W PACKAGING INC                VENDOR     
5000000184HAMILTON PRINTING CO               VENDOR     
5000000185HARPERCOLLINS PUBLISHERS           VENDOR     
5000000186HARPERCOLLINS PUBLISHERS           VENDOR     
5000000187PRESIDENT & FELLOWS OF HARVARD COLLVENDOR     
5000000188HARPERCOLLINS PUBLISHERS           VENDOR     
5000000189D B HESS CO INC                    VENDOR     
5000000190QUADGRAPHICS COMMERCIAL & SPECIALTYVENDOR     
5000000191HI LITER GRAPHICS                  VENDOR     
5000000192HOLUM & SONS CO INC                VENDOR     
5000000193BEANSTALK GROUP                    VENDOR     
5000000194HINZ LITHOGRAPHING CO              VENDOR     
5000000195MPS                                VENDOR     
5000000196ROYAL HOROWITZ RAE INC             VENDOR     
5000000197HOME PRODUCTS INTERNATIONAL        VENDOR     
5000000198HARPERCOLLINS PUBLISHERS           VENDOR     
5000000199HOWSTUFFWORKS INC                  VENDOR     
5000000200QUEBECOR PRTG/KINGSPORT            VENDOR     
5000000201INTERGRATED BOOK TECHNOLOGY        VENDOR     
5000000202GRAPHIC SERVICES LLC               VENDOR     
5000000203INSTRUCTIONAL MATERIALS GROUP LLC  VENDOR     
5000000204INDUSTRIAL COATINGS GROUP          VENDOR     
5000000205XPRESS360 INC                      VENDOR     
5000000206INSTRUCTIONAL RESOURCES CORP       VENDOR     
5000000207INNOVATIVE USA INC                 VENDOR     
5000000208IVY HILL CORPORATION               VENDOR     
5000000209JAGUAR ADVANCED GRAPHICS           VENDOR     
5000000210J.G. FERGUSON PUBLISHING           VENDOR     
5000000211JIST WORKS, INC                    VENDOR     
5000000212JESSE JONES INDUSTRIES             VENDOR     
5000000213JOHNS BYRNE COMPANY                VENDOR     
5000000214JUSKIE PRINTING CORP               VENDOR     
5000000215JOHN WILEY & SONS INC              VENDOR     
5000000216KOEN BOOK DISTRIBUTORS             VENDOR     
5000000217COURIER KENDALLVILLE               VENDOR     
5000000218KING PRINTING COMPANY INC          VENDOR     
5000000219KINKOS                             VENDOR     
5000000220KIRKWOOD PRINTING                  VENDOR     
5000000221AMES ON DEMAND                     VENDOR     
5000000222KASE PRINTING INC                  VENDOR     
5000000223L & P CONVERTERS INC               VENDOR     
5000000224LAFAYETTE INSTRUMENT COMPANY INC   VENDOR     
5000000225LEHIGH PENNSAUKEN                  VENDOR     
5000000226LAVIGNE                            VENDOR     
5000000227LAKE BOOK MANUFACTURING INC        VENDOR     
5000000228LEHIGH DIGITAL                     VENDOR     
5000000229LIPPINCOTT WILLIAMS & WILKINS      VENDOR     
5000000230LIPPINCOTT WILLIAMS & WILKINS      VENDOR     
5000000231PACIFIC PIER INC                   VENDOR     
5000000232LEHIGH DIGITAL                     VENDOR     
5000000233LINEHAN INC                        VENDOR     
5000000234LION LABELS INC                    VENDOR     
5000000235RAND MCNALLY                       VENDOR     
5000000236CENTRAL NATIONAL-GOTTESMAN INC     VENDOR     
5000000237LINDENMEYER PAPER CO INC           VENDOR     
5000000238LITPAC                             VENDOR     
5000000239LASER SYSTEMS SERVICE              VENDOR     
5000000240LITTLE BROWN                       VENDOR     
5000000241LIBRARY VIDEO COMPANY              VENDOR     
5000000242LIVE WIRE MEDIA                    VENDOR     
5000000243LIPPINCOTT WILLIAMS & WILKINS      VENDOR     
5000000244MAZER CORPORATION                  VENDOR     
5000000245MAZER CORPORATION                  VENDOR     
5000000246MASSACHUSETTS ENVELOPE CO INC      VENDOR     
5000000247MALLOY LITHOGRAPHING INC           VENDOR     
5000000248MACMILLAN PUBLISHERS LTD           VENDOR     
5000000249MCGRAW HILL INC                    VENDOR     
5000000250MCGRAW HILL INC                    VENDOR     
5000000251MCGRAW HILL INC                    VENDOR     
5000000252PHOENIX COLOR CORP                 VENDOR     
5000000253NCS PEARSON INC                    VENDOR     
5000000254MERCANTILE PRINTING                VENDOR     
5000000255M & G COMMERCIAL PRINTERS          VENDOR     
5000000256MBI INTERNATIONAL                  VENDOR     
5000000257MILLS INDUSTRIES INC               VENDOR     
5000000258MARKETING OUT OF THE BOX           VENDOR     
5000000259MITCHELLACE                        VENDOR     
5000000260UNIVERSAL MILLENNIUM               VENDOR     
5000000261MULTIMEDIA REPRODUCTION SERVICES   VENDOR     
5000000262MOORE STORE                        VENDOR     
5000000263MOORE LANGEN PRINTING              VENDOR     
5000000264MOORE BUSINESS FORMS INC           VENDOR     
5000000265RRD-IOWA CITY                      VENDOR     
5000000266MAPLE VAIL BOOK MANUFACTURING GP   VENDOR     
5000000267NEW PAGE CORPORATION               VENDOR     
5000000268AMERICA ONLINE INC                 VENDOR     
5000000269MILLBROOK PRESS                    VENDOR     
5000000270MAPLE VAIL                         VENDOR     
5000000271NCS PEARSON                        VENDOR     
5000000272NCS PEARSON INC                    VENDOR     
5000000273MOORE LANGEN PRINTING              VENDOR     
5000000274METATEC CORP                       VENDOR     
5000000275MULTIPLE IMAGES                    VENDOR     
5000000276BFS ENTERTAINMENT & MULTIMEDIA LTD VENDOR     
5000000277MARVEL EDUCATION INC               VENDOR     
5000000278NORTH ATTLEBORO JEWELRY CO         VENDOR     
5000000279NASCO                              VENDOR     
5000000280REINDL NICHOLSTONE LLC             VENDOR     
5000000281NATIONAL BOOK FOUNDATION           VENDOR     
5000000282PHOENIX COLOR CORP                 VENDOR     
5000000283SULLIVAN BROTHERS                  VENDOR     
5000000284NORTHEAST OFFSET                   VENDOR     
5000000285NEW ENGLAND TYPOGRAPHIC SERVICE    VENDOR     
5000000286U&I GRAPHIC COMMUNICATIONS         VENDOR     
5000000287NL ASSOCIATES LLC                  VENDOR     
5000000288NORTHEAST OFFSET INC               VENDOR     
5000000289NTC/CONTEMPORARY PUBL CO           VENDOR     
5000000290NATIONAL GEOGRAPHIC SOCIETY        VENDOR     
5000000291NATIONAL GEOGRAPHIC SOCIETY        VENDOR     
5000000292NATIONAL GEOGRAPHIC SOCIETY        VENDOR     
5000000293NATIONAL GEOGRAPHIC SOCIETY        VENDOR     
5000000294MILANOSTAMPA  SPA                  VENDOR     
5000000295BUNK 1 PRODUCTIONS INC             VENDOR     
5000000296CYCLE INC                          VENDOR     
5000000297OFFSET PAPERBACK MFRS INC          VENDOR     
5000000298ORIENTAL TRADING COMPANY INC       VENDOR     
5000000299OXFORD UNIVERSITY PRESS            VENDOR     
5000000300OXFORD UNIV PRESS                  VENDOR     
5000000301UNIVERISTY OF OXFORD PRESS         VENDOR     
5000000302PARAGON FORMS INC                  VENDOR     
5000000303PAK 2000                           VENDOR     
5000000304PATTERSON PRINTING                 VENDOR     
5000000305PENGUIN BOOKS LTD                  VENDOR     
5000000306PBS VIDEO                          VENDOR     
5000000307LSQ FUNDING GROUP                  VENDOR     
5000000308CROSSMEDIA                         VENDOR     
5000000309PHOENIX COLOR CORP                 VENDOR     
5000000310PCWHOLESALE                        VENDOR     
5000000311PCWHOLESALE                        VENDOR     
5000000312PENGUIN USA                        VENDOR     
5000000313THE J PAUL GETTY TRUST             VENDOR     
5000000314PHOENIX COLOR CORP                 VENDOR     
5000000315PHOENIX COLOR                      VENDOR     
5000000316PRENTICE HALL                      VENDOR     
5000000317PACKAGING HOUSE                    VENDOR     
5000000318POCKET BOOKS                       VENDOR     
5000000319BAGPEDDLER INC/PROMOPEDDLER        VENDOR     
5000000320PLANO MOLDING COMPANY              VENDOR     
5000000321PRECISION OFFSET PRINTING COMPANY IVENDOR     
5000000322PRESS OF OHIO INC                  VENDOR     
5000000323PRESS OF OHIO THE                  VENDOR     
5000000324PRECISION OFFSET PRINTING CO INC   VENDOR     
5000000325JOHN P POW COMPANY INC             VENDOR     
5000000326JOHN P POW CO INC                  VENDOR     
5000000327PRO PRINT                          VENDOR     
5000000328PRESS RUN                          VENDOR     
5000000329PRATT PAPER COMPANY                VENDOR     
5000000330PRATT PAPER COMPANY                VENDOR     
5000000331PRO-ED                             VENDOR     
5000000332PREMIER AGENDAS INC                VENDOR     
5000000333PSI COMMUNICATIONS INC             VENDOR     
5000000334PRINTSOURCE                        VENDOR     
5000000335QUEBECOR WORLD BUFFALO             VENDOR     
5000000336QUEBECOR WORLD                     VENDOR     
5000000337QUARTO PUBLISHING                  VENDOR     
5000000338QUESTAR DATA SYSTEMS INC           VENDOR     
5000000339QUEBECOR PRINTING - DUBUQUE INC    VENDOR     
5000000340RANDOM HOUSE                       VENDOR     
5000000341RAPID REPRODUCTION                 VENDOR     
5000000342NEW TERRITORIES INC                VENDOR     
5000000343LYKE CORP                          VENDOR     
5000000344REGION IV EDUCATION SERVICE CENTER VENDOR     
5000000345BURT RIGID BOX INC                 VENDOR     
5000000346RENAISSANCE LEARNING CENTER        VENDOR     
5000000347LEO PAPER PRODUCTS LTD             VENDOR     
5000000348QUEBECOR WORLD - MEXICO            VENDOR     
5000000349ROSE PRINTING                      VENDOR     
5000000350ROSS GAGE INC                      VENDOR     
5000000351ROOSEVELT PAPER COMPANY            VENDOR     
5000000352SCHLEICH/TOTAL TOYS                VENDOR     
5000000353RUNCO                              VENDOR     
5000000354RIVERSIDE GROUP                    VENDOR     
5000000355RAND WHITNEY CONTAINER LLC         VENDOR     
5000000356DORIS E EXNER                      VENDOR     
5000000357COGNITIVE CORPORATION              VENDOR     
5000000358OPTICAL DISC SOLUTIONS INC         VENDOR     
5000000359SUPERIOR PRINTING & PROMOTION INC  VENDOR     
5000000360BICKNELL AND FULLER                VENDOR     
5000000361STONE CONTAINER CORP               VENDOR     
5000000362STONE CONTAINER CORP               VENDOR     
5000000363SCHOLASTIC INC                     VENDOR     
5000000364RRD - SOUTH CHINA PRINTING COMPANY VENDOR     
5000000365SONY DISC MANUFACTURING            VENDOR     
5000000366SONY DISCOS INC                    VENDOR     
5000000367STANDARD REGISTER                  VENDOR     
5000000368STANDARD REGISTER                  VENDOR     
5000000369STANDARD REGISTER                  VENDOR     
5000000370SFERA                              VENDOR     
5000000371SIDESHOW INC                       VENDOR     
5000000372VWR FUNDING INC                    VENDOR     
5000000373LIBRARY VIDEO COMPANY              VENDOR     
5000000374QUEBECOR PRINTING SEMLINE INC      VENDOR     
5000000375SONY MUSIC SPECIAL PRODUCTS        VENDOR     
5000000376SONY BMG MUSIC CUSTOM MARKETING    VENDOR     
5000000377SOUTH CHINA PRINTING               VENDOR     
5000000378BANTA SOUTHEASTERN INC             VENDOR     
5000000379APPLIED SYMBOLIX                   VENDOR     
5000000380S P C MAUNFACTURING CO             VENDOR     
5000000381SIR SPEEDY                         VENDOR     
5000000382SRA INC                            VENDOR     
5000000383SHORT RUN LABELS                   VENDOR     
5000000384SIMON & SCHUSTER                   VENDOR     
5000000385WILLIAM HOLLOWAY LIMITED           VENDOR     
5000000386SIR SPEEDY                         VENDOR     
5000000387STROMBERG ALLEN & CO               VENDOR     
5000000388SCHOLASTIC TESTING SERVICE INC     VENDOR     
5000000389STEVENSON  THE COLOR CO            VENDOR     
5000000390SULLIVAN BROTHERS                  VENDOR     
5000000391SUNBURST TECHNOLOGY CORP           VENDOR     
5000000392TARGET PLASTICS                    VENDOR     
5000000393TAURUS DISPLAY CO                  VENDOR     
5000000394TECHNICOLOR VIDEO SVCS             VENDOR     
5000000395PACKAGING CREDIT CO LLC            VENDOR     
5000000396ULINE                              VENDOR     
5000000397UNITED PUB LIBRARY SERV            VENDOR     
5000000398UNITED PUBLISHERS LIBRARY SERVICES VENDOR     
5000000399VOCATIONAL ADJUSTMENT CENTER       VENDOR     
5000000400WORZALLA PUBLISHING CO             VENDOR     
5000000401WRS MOTION PICTURE AND VIDEO LAB   VENDOR     
5000000402ACME BOOKBINDING                   VENDOR     
5000000403ADDED INCENTIVES INC               VENDOR     
5000000404ANNENBERG/CPB PROJECT              VENDOR     
5000000405BRICK & BALLERSTEIN INC            VENDOR     
5000000406BOOKMART PRESS INC                 VENDOR     
5000000407BOOKSPAN                           VENDOR     
5000000408BROOK & WHITTLE LTD                VENDOR     
5000000409BANTA ISG  SPANISH FORK            VENDOR     
5000000410TOYSMITH/BEST TOYS                 VENDOR     
5000000411BANTAM DOUBLEDAY DELL              VENDOR     
5000000412BOSTON TAG & LABEL                 VENDOR     
5000000413BOWATER INC                        VENDOR     
5000000414CAMBRIDGE UNIVERSITY PRESS         VENDOR     
5000000415CALUMET CARTON CO                  VENDOR     
5000000416ST IVES INC CASE HOYT              VENDOR     
5000000417CITY DIECUTTING INC                VENDOR     
5000000418C J KREHBIEL                       VENDOR     
5000000419CORNELL UNIVERSITY                 VENDOR     
5000000420CORAL GRAPHICS                     VENDOR     
5000000421CHARLES C THOMAS PUBLISHER LTD     VENDOR     
5000000422CHISWICK TRADING CO                VENDOR     
5000000423DARLING MODELS                     VENDOR     
5000000424D & F PRINT SERVICES               VENDOR     
5000000425DMI                                VENDOR     
5000000426GOODWAY GRAPHICS OF MA INC         VENDOR     
5000000427DIAMOND MARKETING SOLUTIONS        VENDOR     
5000000428DIAMOND MARKETING SOLUTIONS        VENDOR     
5000000429DICKINSON PRESS INC                VENDOR     
5000000430ELEGANCE PRINTING                  VENDOR     
5000000431RENAISSANCE LEARNING, INC          VENDOR     
5000000432AMERIC DISC USA-MINNESOTA INC      VENDOR     
5000000433FAILSAFE DISK COMPANY              VENDOR     
5000000434FAILSAFE MEDIA COMPANY             VENDOR     
5000000435RR DONNELLEY RECEIVABLES, IN       VENDOR     
5000000436HAMILTON PRINTING CO               VENDOR     
5000000437HARPERCOLLINS PUBLISHERS           VENDOR     
5000000438GLOBAL INTERPRINT EAST INC         VENDOR     
5000000439INFOGRAPHIX INC                    VENDOR     
5000000440INTERVISUAL BOOK                   VENDOR     
5000000441WIDE RANGE INC                     VENDOR     
5000000442JOSEPH LEEB ENTERPRISES INC        VENDOR     
5000000443JAYS PUBLISHERS SERVICE            VENDOR     
5000000444KING PRINTING CO                   VENDOR     
5000000445KWIK KOPY                          VENDOR     
5000000446K & M PRINTING                     VENDOR     
5000000447KEYSTONE PROMOTIONS INC            VENDOR     
5000000448LEHIGH COLORTRONICS                VENDOR     
5000000449LOFTON LABEL INC                   VENDOR     
5000000450LEARNING RESOURCES INC             VENDOR     
5000000451LASERGRAPHICS INC                  VENDOR     
5000000452MAZER CORPORATION                  VENDOR     
5000000453MINUTEMAN PRESS                    VENDOR     
5000000454MINITAB INC                        VENDOR     
5000000455MATHESON HIGGINS CONGRESS PRESS INCVENDOR     
5000000456METRITECH                          VENDOR     
5000000457U&I GRAPHIC COMMUNICATIONS         VENDOR     
5000000458PSYCHOLOGICAL ASSESSMENT RESOURCES VENDOR     
5000000459PHOENIX LEARNING GROUP INC         VENDOR     
5000000460PLAY VISION INC                    VENDOR     
5000000461PSYCHOLOGICAL ASSESSMENT RESOURCES VENDOR     
5000000462ROYAL LABEL CO INC                 VENDOR     
5000000463SAGE PUBLICATIONS                  VENDOR     
5000000464J S MCCARTHY CO INC                VENDOR     
5000000465SARGENT ART                        VENDOR     
5000000466SHAWMUT ADVERTISING INC            VENDOR     
5000000467SOLO PRINTING                      VENDOR     
5000000468SOPHIA'S                           VENDOR     
5000000469SIR SPEEDY                         VENDOR     
5000000470SIR SPEEDY                         VENDOR     
5000000471SASSY INC                          VENDOR     
5000000472STINEHOUR PRESS                    VENDOR     
5000000473STOELTING                          VENDOR     
5000000474STRATHMORE COMPANY                 VENDOR     
5000000475PHILIP WOOD INC                    VENDOR     
5000000480BEST BOOK MANUFACTURES INC         VENDOR     
5000000485BANTA ISG SPECIAL SERVICES         VENDOR     
5000000486AUSTRALIAN LICENSING CORP PTY LTD  VENDOR     
5000000487SHERIDAN BOOKS INC                 VENDOR     
5000000490ABC DARIAN                         VENDOR     
5000000491OPERATION COMPASSION               VENDOR     
5000000492FIREFLY BOOKS LTD                  VENDOR     
5000000493HARCOURT INC                       VENDOR     
5000000495SIGMA ASSESSMENT SYSTEMS INC       VENDOR     
5000000496ALL LINE INC                       VENDOR     
5000000500RC2 BRANDS INC                     VENDOR     
5000000501BIND RITE UNION GRAPHICS LLC       VENDOR     
5000000502BAY STATE ENVELOPE                 VENDOR     
5000000503GRAPHIX PRODUCTS INC               VENDOR     
5000000504STEVE SPANGLER SCIENCE INC         VENDOR     
5000000505ABECEDARIAN                        VENDOR     
5000000506OPTICAL DISC SOLUTIONS             VENDOR     
5000000507NATURE SOUND STUDIO                VENDOR     
5000000508BANTA INTEGRATED MEDIA             VENDOR     
5000000510SHENZHEN DONNELLEY BRIGHT          VENDOR     
5000000515TIME WARNER BOOK GROUP             VENDOR     
5000000516DB HESS CO                         VENDOR     
5000000517CREATIVE LEARNING PRESS INC        VENDOR     
5000000520DREW & ROGERS INC                  VENDOR     
5000000521TBS                                VENDOR     
5000000522CONCEPT                            VENDOR     
5000000523SCHIELE GRAPHICS                   VENDOR     
5000000524MIDWEST PROMOTIONAL GROUP          VENDOR     
5000000525RE-SOURCE DATA PRODUCTIONS         VENDOR     
5000000530LEHIGH LITHOGRAPHERS               VENDOR     
5000000531COMBINED TECH INC                  VENDOR     
5000000532NEW DIMENSION MEDIA                VENDOR     
5000000533RNR PLASTICS IN                    VENDOR     
5000000535PROMOTIONAL INDUSTRIES INC         VENDOR     
5000000536ALCOA FLEXIBLE PACKAGING LLC       VENDOR     
5000000540UNIKEEP                            VENDOR     
5000000541NORDICA INTERNATIONAL LTD          VENDOR     
5000000542PENNSYLVANIA STATE UNIVERSITY      VENDOR     
5000000543EVIGNA BRAND INSIGHT               VENDOR     
5000000544BRADY PALMER PRINTING CO           VENDOR     
5000000545COEDITIONS INTERNATIONALES         VENDOR     
5000000546HARPERCOLLINS CHILDRENS BOOKS      VENDOR     
5000000547TOPPAN EXCEL (THAILAND) CO LTD     VENDOR     
5000000550BRESLICH & FOSS LIMITED            VENDOR     
5000000551TEMPLE INLAND                      VENDOR     
5000000552DUNECRAFT INC                      VENDOR     
5000000553HEINEMANN                          VENDOR     
5000000554RR DONNELLEY                       VENDOR     
5000000555AURELIE LAPAUTRE                   VENDOR     
5000000560INSPIRATION SOFTWARE               VENDOR     
5000000561TRANSCONTINENTAL INTERGLOBAL       VENDOR     
5000000562LECTORUM PUBLICATIONS INC          VENDOR     
5000000565RESOURCE DATA PRODUCTS INC         VENDOR     
5000000566EGMONT BOOKS LIMITED               VENDOR     
5000000567MICROPRINT INC                     VENDOR     
5000000568SCHOOL SPECIALTY INC               VENDOR     
5000000569SAUNDERS                           VENDOR     
5000000570ZERO TO THREE                      VENDOR     
5000000571ORION STAR                         VENDOR     
5000000575LANDMARK IMPRESSIONS               VENDOR     
5000000576ENTERPRISE                         VENDOR     
5000000577SEBRANEK INC                       VENDOR     
5000000578THE BOOK SERVICE LTD               VENDOR     
5000000579MASTER TAPE & LABEL PRINTERS       VENDOR     
5000000580HOGREFE & HUBER PUBLISHERS         VENDOR     
5000000581TAG TOYS INC                       VENDOR     
5000000582BALL BOUNCE & SPORT                VENDOR     
5000000585TRANSCONTINENTAL PRINTING GROUP    VENDOR     
5000000590QWIZDOM                            VENDOR     
5000000591WKT COMPANY LTD                    VENDOR     
5000000595FRANCES LINCOLN LTD                VENDOR     
5000000600GIBBS SMITH, PUBLISHER             VENDOR     
5000000601TEXAS INSTRUMENTS, INC             VENDOR     
5000000602J.P. DAS                           VENDOR     
5000000605SOCIAL STUDIES SCHOOL SERVICE      VENDOR     
5000000606WALKER BOOKS LIMITED               VENDOR     
5000000607MERCURY PRINT PRODUCTIONS INC      VENDOR     
5000000608FLAGSHIP PRESS INC                 VENDOR     
5000000609USA DATAFAX INC                    VENDOR     
5000000610WOMEN MAKES MOVIES                 VENDOR     
5000000611WILSON LOGISTICS INC               VENDOR     
5000000648CHICAGO PRESS CORP                 VENDOR     
5000000649CHRONICLE BOOKS                    VENDOR     
5000000650CONSULTING PSYCHOLOGISTS PRESS INC VENDOR     
5000000651PIONEER                            VENDOR     
5000000652PIONEER                            VENDOR     
5000000653CEDANT                             VENDOR     
5000000654NICHE SALES & DISTRIBUTION         VENDOR     
5000000655LEARNING COMPANY                   VENDOR     
5000000656HAMPTON BROWN                      VENDOR     
5000000657HARCOURT TRADE DIVISION            VENDOR     
5000000658TANGIBLE DATA                      VENDOR     
5000000659HORIZON PAPER                      VENDOR     
5000000660COLOR FILM CORP                    VENDOR     
5000000661GARRITY INDUSTRIES                 VENDOR     
5000000662GROLIER INTERACTIVE INC            VENDOR     
5000000663PRIME ENTERTAINMENT                VENDOR     
5000000664PICS                               VENDOR     
5000000665IMAGE MEDIA GROUP INC              VENDOR     
5000000666USA GROUP                          VENDOR     
5000000667MIDLAND PRESS CORPORATION          VENDOR     
5000000668RIVERDEEP                          VENDOR     
5000000669GREAT NORTHERN PAPER               VENDOR     
5000000670MEDIA INTERNATIONAL                VENDOR     
5000000671ELWOOD INDUSTRIES                  VENDOR     
5000000672K & L LOOSELEAF PRODUCTS INC       VENDOR     
5000000673HANDI-CRAFT COMPANY                VENDOR     
5000000674BETAPAK CORPORATION                VENDOR     
5000000675ADAMS FOAM                         VENDOR     
5000000676SPARKLE PARTY SALES                VENDOR     
5000000677VISUAL PRINTING                    VENDOR     
5000000678PUBLISHERS GRAPHICS                VENDOR     
5000000679RSM LOCK & SAFE LTD                VENDOR     
5000000680THE DB HESS COMPANY                VENDOR     
5000000681KELVYN PRESS                       VENDOR     
5000000682INDEPENDENT PUBLISHERS GROUP       VENDOR     
5000000683VORIS COMMUNICATIONS               VENDOR     
5000000684CREATIVE PRINTING SERVICES INC     VENDOR     
5000000685RAND MCNALLY                       VENDOR     
5000000686SCHIELE GRAPHICS                   VENDOR     
5000000687SIR SPEEDY PRINTING CENTER         VENDOR     
5000000688TEMPLE INLAND DISPLAY & PACKAGING  VENDOR     
5000000689HOUGHTON MIFFLIN COMPANY           VENDOR     
5000000690COURIER - KENDALLVILLE             VENDOR     
5000000691R R DONNELLEY RECEIVABLES INC      VENDOR     
5000000692COLBERT PACKAGING                  VENDOR     
5000000693WORLD MEDIA GROUP INC              VENDOR     
5000000694CRA-WAL                            VENDOR     
5000000695PRIME DISTRIBUTION                 VENDOR     
5000000696P & S COCHRAN PRINTERS INC         VENDOR     
5000000697LINDENMEYR PAPER COMPANY INC       VENDOR     
5000000698ENCRYPTION TECHNOLOGY              VENDOR     
5000000699WWF BOOK PUBLISHING                VENDOR     
5000000700HAMPSHIRE PRESS INC                VENDOR     
5000000701RAND-WHITNEY PACKAGING             VENDOR     
5000000702PACKAGED GOODS                     VENDOR     
5000000703TEXAS INSTRUMENTS                  VENDOR     
5000000704R E SMITH PRINTING COMPANY         VENDOR     
5000000705HOUGHTON MIFFLIN XEROX COPY CTR    VENDOR     
5000000706TECH DOC PUB                       VENDOR     
5000000707GOODWAY GRAPHICS                   VENDOR     
5000000708MAC/DONNELL PRINTING               VENDOR     
5000000709IMAGE SOFTWARE                     VENDOR     
5000000710COURIER COMPANIES INC              VENDOR     
5000000711CHARLES RIVER PRESS                VENDOR     
5000000712BOUTWELL OWENS                     VENDOR     
5000000713GH DEAN CO                         VENDOR     
5000000714QUEBECOR PRINTING BOOK GROUP       VENDOR     
5000000715SUNDANCE PUBLISHERS                VENDOR     
5000000716LEARNING COMPANY                   VENDOR     
5000000717TEC DOC PUBLISHING                 VENDOR     
5000000718TROUBADOUR INTERACTIVE             VENDOR     
5000000719DATA FORMS                         VENDOR     
5000000720LABEL HAUS INC                     VENDOR     
5000000721SERVIGRAPHICS                      VENDOR     
5000000722MINUTEMAN PRESS                    VENDOR     
5000000723EDUCATIONAL ELECTRONICS            VENDOR     
5000000724ISABELLA STEWART GARDNER MUSEUM INCVENDOR     
5000000725TIME WARNER BOOK GROUP             VENDOR     
5000000726WINTER & COMPANY INC               VENDOR     
5000000727PRATT PAPER COMPANY                VENDOR     
5000000728VICTOR GRAPHICS                    VENDOR     
5000000729SKILLS BANK                        VENDOR     
5000000730PHOENIX BOOK TECH PARK             VENDOR     
5000000731WILLIAMS & WILKINS                 VENDOR     
5000000732SAUNDERS MANUFACTURING COMPANY     VENDOR     
5000000733DOCDATA NEW ENGLAND INC            VENDOR     
5000000734INTERNATIONAL PURCHASING ASSOC     VENDOR     
5000000735SIGMA ASSESSMENT SYSTEMS INC       VENDOR     
5000000736TECHNICOLOR                        VENDOR     
5000000737EVIGNA                             VENDOR     
5000000738BLACKBOURN INC                     VENDOR     
5000000739BANTA DIRECT MARKETING             VENDOR     
5000000740BINDCO CORPORATION                 VENDOR     
5000000741ZOMAX OPTICAL MEDIA                VENDOR     
5000000742MASTERCRAFT LABLES                 VENDOR     
5000000743PEARSON ASSESSMENTS PRINT SERVICES VENDOR     
5000000744LECTORUM PUBLICATIONS              VENDOR     
5000000745VON HOFFMANN                       VENDOR     
5000000746TECHNICAL COMMUNICATION SERVICES   VENDOR     
5000000747ITP                                VENDOR     
5000000748EDWARDS BROTHERS                   VENDOR     
5000000749UNIVERSITY OF NEBRASKA PRESS       VENDOR     
5000000750DURADEX INCORP                     VENDOR     
5000000751CASSETTE DUB INC                   VENDOR     
5000000752ATCO PRODUCTS INC                  VENDOR     
5000000753ENESCO LLC                         VENDOR     
5000000754DREW &  ROGERS                     VENDOR     
5000000755MACNAUGHTON EINSON                 VENDOR     
5000000756RRD-GRAPHIC MANAGEMENT             VENDOR     
5000000757LEHIGH/PRECISION                   VENDOR     
5000000758AIM DISTRIBUTION CENTER            VENDOR     
5000000759DREW & ROGERS                      VENDOR     
5000000760LAWRENCE ERLBAUM ASSOC             VENDOR     
5000000761FIREFLY BOOKS                      VENDOR     
5000000762HAMILTON PRINTING CO               VENDOR     
5000000763LECTORUM PUBLICATIONS              VENDOR     
5000000764ALLEN FIELD CO                     VENDOR     
5000000765TOPPAN LEEFUNG PRINTING LTD        VENDOR     
5000000766VAIL-BALLOU PRESS                  VENDOR     
5000000767BULKLEY DUNTON PUBLISHING GROUP    VENDOR     
5000000768PENGUIN PUTNAM INC                 VENDOR     
5000000769US NEWS CLASSROOM PROGRAM          VENDOR     
5000000770STRATEGIC PAPER GROUP              VENDOR     
5000000771JUNGLE MEDIA GROUP                 VENDOR     
5000000772CONCEPT DISPLAY & PACKAGING        VENDOR     
5000000773ENTERPRISE PRESS                   VENDOR     
5000000774MERCURY PRINT PRODUCTIONS          VENDOR     
5000000775CINDIE KRIDLE                      VENDOR     
5000000776HENRY HOLT & COMPANY               VENDOR     
5000000777SCHOLASTIC                         VENDOR     
5000000778SCHOLASTIC                         VENDOR     
5000000779SIMON & SCHUSTER                   VENDOR     
5000000780MEAD WESTVACO PAPER                VENDOR     
5000000781PRESS OF OHIO                      VENDOR     
5000000782HOGREFE & HUBER PUBLISHERS         VENDOR     
5000000783DUNECRAFT INC                      VENDOR     
5000000784WHITE GRAPHICS INC                 VENDOR     
5000000785STODDART PUBLISHING COMPANY        VENDOR     
5000000786WARNER MEDIA SERVICES              VENDOR     
5000000787WARNER MEDIA SERVICES              VENDOR     
5000000788HUGGINS PRINTING                   VENDOR     
5000000789CONTINENTAL PRESS                  VENDOR     
5000000790FRY COMMUNICATIONS                 VENDOR     
5000000791PENGUIN PUTNAM INC                 VENDOR     
5000000792INTELLIGENCER PRINTING             VENDOR     
5000000793PENNSYLVANIA CENTER FOR THE BOOK   VENDOR     
5000000794IMPRIMERIES QUEBECOR ST JEAN       VENDOR     
5000000795TAYLOR BOX CO                      VENDOR     
5000000796IVEX PACKAGING CORPORATION         VENDOR     
5000000797CLAYS UK                           VENDOR     
5000000798BIDDLES LIMITED                    VENDOR     
5000000799QUEBECOR PRINTING KINGSPORT        VENDOR     
5000000800NICHOLSTONE INC                    VENDOR     
5000000801FLORALSTUFF.COM                    VENDOR     
5000000802ABECEDARIAN                        VENDOR     
5000000803RRD-HARRISONBURG NORTH             VENDOR     
5000000804GRAPHICOM SRI                      VENDOR     
5000000805PENGUIN BOOKS                      VENDOR     
5000000806BOOK PRESS/QUEBECOR                VENDOR     
5000000807CAPITAL CITY PRESS                 VENDOR     
5000000808QUEBECOR INTEGRATED MEDIA          VENDOR     
5000000809DIVERSFIELD SYSTEMS GROUP          VENDOR     
50000008103M OPTICAL RECORDING IMATION       VENDOR     
5000000811EDWARDS BROTHERS INC               VENDOR     
5000000812WEBCRAFTERS INC                    VENDOR     
5000000813UNIFIED SOLUTIONS                  VENDOR     
5000000814ZEIER PLASTIC & MFG INC            VENDOR     
5000000815SEBRANEK INC                       VENDOR     
5000000816RANDOM HOUSE CHIDRENS BOOKS UK     VENDOR     
5000000817VERLAG HANS HUBER                  VENDOR     
5000000818MCH MULTIMEDIA                     VENDOR     
5000000819DISTRIBUIDORA NORMA INC            VENDOR     
5000000820BEMROSE SECURITY PRINTING          VENDOR     
5000000821BUTLER AND TANNER                  VENDOR     
5000000822OMINA                              VENDOR     
5000000823J W ARROWSMITH                     VENDOR     
5000000824PRINTER PORTUGUESA                 VENDOR     
5000000825SING CHEONG                        VENDOR     
5000000826MIDAS                              VENDOR     
5000000827WESTONS DEVELOPMENT LIMITED        VENDOR     
5000000828BELL & BAIN                        VENDOR     
5000000829GARZANTI VERGA                     VENDOR     
5000000830SUN FUNG OFFSET BINDING CO LTD     VENDOR     
5000000831TLACIARNE BB                       VENDOR     
5000000832TIMES OFFSET                       VENDOR     
5000000833SKIVA PRINTING AND BINDING         VENDOR     
5000000834A & C BLACK LIMITED                VENDOR     
5000000835ALLEN AND UNWIN PARTY LTD          VENDOR     
5000000836CLAVIS EDITIONS                    VENDOR     
5000000837DORLING KINDERSLEY                 VENDOR     
5000000838GRUPO ANAYA                        VENDOR     
5000000839HODDER HEADLINE AUSTRALIA          VENDOR     
5000000840ORION PUBLISHING GROUP LTD         VENDOR     
5000000841SCHOLASTIC AUSTRALIA PTY LTD       VENDOR     
5000000842TRANSWORLD PUBLISHERS              VENDOR     
5000000843CREATIVE PRINT & DESIGN GROUP      VENDOR     
5000000844TIMS PRINTING CO LTD               VENDOR     
5000000845GOLDEN CUP PRINTING CO LTD         VENDOR     
5000000846TECHSON PAPER & PLASTIC PRODUCTS   VENDOR     
5000000847THOMSON PRESS LTD                  VENDOR     
5000000849CCI-EAROBICS                       VENDOR     
5000000850Skills Bank                        VENDOR     
5000000851TIMES OFFSET                       VENDOR     
5000000852WOMEN MAKE MOVIES                  VENDOR     
5000000853WILSON LOGISTICS                   VENDOR     
5000000854HALIFAX CTR-CODE                   VENDOR     
5000000855WEST PUBLISHING CORPORATION        VENDOR     
5000000856SOCIAL STUDIES SCHOOL SERVICES     VENDOR     
5000000857RUSS BERRIE                        VENDOR     
5000000858BR PRINTERS                        VENDOR     
5000000859OXFORD UNIVERSITY PRESS            VENDOR     
5000000860LAROUSSE MEXICO                    VENDOR     
5000000861WWF-BOOK PUBLISHING DIVISION       VENDOR     
5000000862SCANTRON CORPORATION               VENDOR     
5000000863USA DATA FAX, INC.                 VENDOR     
5000000864COURIER STOUGHTON                  VENDOR     
5000000865COURIER - WESTFORD                 VENDOR     
5000000866 CONNECTICUT PRINTERS              VENDOR     
5000000867 RAND MCNALLY                      VENDOR     
5000000868RRD-WILLARD                        VENDOR     
5000000869 RINGIER AMERICA                   VENDOR     
5000000870QUEBECOR WORLD TAUNTON             VENDOR     
5000000871 MAPLE VAIL BOOK MANUFACTURING GROUVENDOR     
5000000872 EASTERN PRESS                     VENDOR     
5000000873LEHIGH PRESS                       VENDOR     
5000000874 LOUIS PIZITZ MIDDLE SCH           VENDOR     
5000000875 EVANS PRINTING CO                 VENDOR     
5000000876 HOROWITZ/RAE PUBLISHING CO        VENDOR     
5000000877RRD-MIDWAY                         VENDOR     
5000000878THE PRESS OF OHIO                  VENDOR     
5000000879BEACON PRESS                       VENDOR     
5000000880 DELTA EDUCATION                   VENDOR     
5000000881 UNIVERSITY PRESS                  VENDOR     
5000000882BANTAM DOUBLEDAY DELL              VENDOR     
5000000883 RIVERSIDE PUBLISHING COMPANY      VENDOR     
5000000884 UNITED LITHO                      VENDOR     
5000000885 EDWARDS BROTHERS  INC             VENDOR     
5000000886 SUNRISE PLASTICS                  VENDOR     
5000000887 SOUTHEASTERN COLOR GRAPHICS       VENDOR     
5000000888 OHIO VALLEY LITHO                 VENDOR     
5000000889VON HOFFMAN PRESS C                VENDOR     
5000000890QUEBECOR WORLD- FAIRFIELD INC      VENDOR     
5000000891 HOROWITZ RAE                      VENDOR     
5000000892RRD - BANTA COMPANY                VENDOR     
5000000893 PARKER POLYCHROME                 VENDOR     
5000000894 PETERSEN WAREHOUSE                VENDOR     
5000000895RC2 Brands Inc.                    VENDOR     
5000000896 MERIDIAN PRINTING                 VENDOR     
5000000897 NELSON CANADA                     VENDOR     
5000000898EGMONT CHILDRENS BOOKS             VENDOR     
5000000899 WINTOR-SWAN ASSOCIATES  INC       VENDOR     
5000000900THE RIVERSIDE PUBLISHING COMPANY   VENDOR     
5000000901 LANDMARK IMPRESSIONS              VENDOR     
5000000902 FISHER-PRICE                      VENDOR     
5000000903SCIENCE KIT & BOREAL LABORATORIES  VENDOR     
5000000904 LARAMIE/TAK-A-TOY                 VENDOR     
5000000905 MASTER GRAPHICS                   VENDOR     
5000000906 MCCRORY & ASSOCIATES              VENDOR     
5000000907MERRYMAKERS INC                    VENDOR     
5000000908RRD-REYNOSA/MCALLEN                VENDOR     
5000000909BIND-RITE ROBBINSVILLE LLC         VENDOR     
5000000910 MAYFIELD PUBLISHING COMPANY       VENDOR     
5000000911RR  DONNELLEY & SONS               VENDOR     
5000000912 RAYTHEON SERVICE COMPANY          VENDOR     
5000000913THE DB HESS COMPANY                VENDOR     
5000000914RRD-JEFFERSON CITY                 VENDOR     
5000000915LAROUSSE KINGFISHER CHAMBERS  INC  VENDOR     
5000000916 PEARSON  WHSE CR / NCS            VENDOR     
5000000917BECKLEY CARDY                      VENDOR     
5000000918RRD-ROANOKE/SALEM                  VENDOR     
5000000919 BUXTON SKINNER PRINTING COMPANY   VENDOR     
5000000920RRD-JOHNSON CITY                   VENDOR     
5000000921 QUEST GRAPHICS                    VENDOR     
5000000922 Beacon c/o Ballantine             VENDOR     
5000000923 Questar                           VENDOR     
5000000924DATA RECOGNITION CORPORATION       VENDOR     
5000000925 Infinity                          VENDOR     
5000000926ODYSSEY PRESS INC                  VENDOR     
5000000927 RR DONNELLEY                      VENDOR     
5000000928RRD-OWENSVILLE                     VENDOR     
5000000929 PACKAGING PARTNERS                VENDOR     
5000000930RRD-ALLENTOWN                      VENDOR     
5000000931SCHOLASTIC, INC.                   VENDOR     
5000000932 PRINTING SOURCES, INC.            VENDOR     
5000000933Wing King Tong Co. Ltd.            VENDOR     
5000000934CLE INTERNATIONAL                  VENDOR     
5000000935THE DINGLEY PRESS                  VENDOR     
5000000936 Unimac Graphics                   VENDOR     
5000000937 CCI-Earobics                      VENDOR     
5000000938BANTA NORKA                        VENDOR     
5000000939 Banta Publications                VENDOR     
5000000940RRD-ASIA PRINTING SOLUTIONS        VENDOR     
5000000941RT ASSOCIATES INC                  VENDOR     
5000000942NCS PEARSON INC                    VENDOR     
5000000943INSPIRATION SOFTWARE INC           VENDOR     
5000000944LARSON TEXTS INC                   VENDOR     
5000000945RRD-GM-INTL ONLY                   VENDOR     
5000000946 ARCATA GRAPHICS/HALLIDAY          VENDOR     
5000000947 MEEHAN TOOKER                     VENDOR     
5000000948 HOUGHTON MIFFLIN COMPANY          VENDOR     
5000000949 HART DISTRIBUTION SERVICES        VENDOR     
5000000950 RINGIER AMERICA                   VENDOR     
5000000951 HARVARD PRINTING                  VENDOR     
5000000952 CONSOLIDATED PRESS  INC           VENDOR     
5000000953 NORTHEAST GRAPHICS                VENDOR     
5000000954MAZER                              VENDOR     
5000000955 CAPITAL CITY PRESS                VENDOR     
5000000956RRD-ELDRIDGE                       VENDOR     
5000000961FUN EXPRESS INC                    VENDOR     
5000000962PC NATION                          VENDOR     
5000000966PACKAGING CONSULTING INC           VENDOR     
5000000967UNIVERSAL WILDE                    VENDOR     
5000000968PACKAGING FULFILLMENT              VENDOR     
5000000969LEXINGTON GRAPHICS                 VENDOR     
5000000971BANTAM DOUBLEDAY DELL              VENDOR     
5000000972EDWARDS BROTHERS INC               VENDOR     
5000000973SONYBMG MUSIC ENTERTAINMENT        VENDOR     
5000000974SONY MUSIC SPECIAL PRODUCTS        VENDOR     
5000000975BANTA PACKAGING AND FULFILLMENT    VENDOR     
5000000976R R  DONNELLEY & SONS              VENDOR     
5000000977ACME BOOKBINDING                   VENDOR     
5000000978ACME PRNTING COMPANY               VENDOR     
5000000979ACME UNITED CORP                   VENDOR     
5000000980AMHERST LABEL                      VENDOR     
5000000981ANDERSON LOCK CO LTD               VENDOR     
5000000982RRD-HARRISONBURG SOUTH             VENDOR     
5000000983RRD-BANTA -SPANISH FORK            VENDOR     
5000000984RRD-SHAKOPEE                       VENDOR     
5000000985BATAVIA CONTAINER INC              VENDOR     
5000000986BEACON PRESS                       VENDOR     
5000000987BECKLEY CARDY                      VENDOR     
5000000988BELMARK INC                        VENDOR     
5000000989BR PRINTERS CB                     VENDOR     
5000000990BRADFORD & BIGELOW INC             VENDOR     
5000000991BROOK & WHITTLE LTD                VENDOR     
5000000992BURT RIGID BOX INC                 VENDOR     
5000000993CAMBRIDGE SOFT CO                  VENDOR     
5000000994CEV MULTIMEDIA                     VENDOR     
5000000995COMBINED TECH INC                  VENDOR     
5000000996COMMERCIAL COMM- CCI               VENDOR     
5000000997CONTAINER SERVICE CORP             VENDOR     
5000000998CREATIVE GRAPHICS INC              VENDOR     
5000000999CREATIVE LEARNING                  VENDOR     
5000001000CROSSMEDIA                         VENDOR     
5000001001CYCLE INC                          VENDOR     
5000001002DAHLSTROM DISPLAY INC              VENDOR     
5000001003THE DB HESS COMPANY                VENDOR     
5000001004DIVERSA GRAPHICS                   VENDOR     
5000001005DOMAIN COMMUNICATIONS              VENDOR     
5000001006DS GRAPHICS                        VENDOR     
5000001007EDUCATIONAL VIDEO GROUP            VENDOR     
5000001008EDUCATORS PUBLISHING SERVICES      VENDOR     
5000001009EDWARDS BROTHERS                   VENDOR     
5000001010ELSEVIER SCIENCE                   VENDOR     
5000001011ERIC ARMIN INC                     VENDOR     
5000001012EVATONE                            VENDOR     
5000001013FLAGSHIP PRESS INC                 VENDOR     
5000001014FRUEND CAN COMPANY                 VENDOR     
5000001015CCG LLC                            VENDOR     
5000001016GIBBS SMITH, PUBLISHER             VENDOR     
5000001017HARPERCOLLINS PUBLISHERS           VENDOR     
5000001018PRESIDENT & FELLOWS OF HARVARD COLLVENDOR     
5000001019HEINEMANN                          VENDOR     
5000001020INTEGRATED BOOK TECHNOLOGY INC     VENDOR     
5000001021JOHN P POW COMPANY INC             VENDOR     
5000001022JOHNS BYRNE COMPANY                VENDOR     
5000001023LAFAYETTE INSTRUMENTS              VENDOR     
5000001024LAKEBOOK MANUFACTURING             VENDOR     
5000001025LEARNING RESOURCES INC             VENDOR     
5000001026EDWARDS BROTHERS MALLOY INC        VENDOR     
5000001027MAPLE VAIL                         VENDOR     
5000001028MAPQUEST                           VENDOR     
5000001029MAZER CORPORATION                  VENDOR     
5000001030MOORE LANGEN PRINTING CO INC       VENDOR     
5000001031PACKAGING HOUSE                    VENDOR     
5000001032LEHIGH PHOENIX-HAGERSTOWN          VENDOR     
5000001033PRECISION OFFSET                   VENDOR     
5000001034PROTOCOL                           VENDOR     
5000001035PSYCHOLOGICAL ASSESSMENT RESOURCES VENDOR     
5000001036QUEBECOR EUSEY PRESS               VENDOR     
5000001037QUESTAR                            VENDOR     
5000001038RRD-BLOOMSBURG                     VENDOR     
5000001039RAND MCNALLY                       VENDOR     
5000001040RAND-WHITNEY CO                    VENDOR     
5000001041RC2 BRANDS INC                     VENDOR     
5000001042RIPON COMMUNITY                    VENDOR     
5000001043ROSE PRINTING                      VENDOR     
5000001044ROSS GAGE INC                      VENDOR     
5000001045SAUNDERS MANUFACTURING             VENDOR     
5000001046SCHOLASTIC INC                     VENDOR     
5000001047SIMON & SCHUSTER                   VENDOR     
5000001048ZERO TO THREE                      VENDOR     
5000001049WOLTERS KLUWER HEALTH              VENDOR     
5000001050WALSWORTH PUBLISHING COMPANY INC   VENDOR     
5000001051LEHIGH PHOENIX-MILWAUKEE           VENDOR     
5000001052HOLTZBRINCK PUBLISHERS LLC         VENDOR     
5000001053UNIVERSAL GRAPHIX                  VENDOR     
5000001054ANY HUE LLC                        VENDOR     
5000001055SUNBURST TECHNOLOGY                VENDOR     
5000001056SULLIVAN BROTHERS                  VENDOR     
5000001057STEVE SPANGLER SCIENCE INC         VENDOR     
5000001058AV WORLDWIDE                       VENDOR     
5000001059CASSETTE SERVICES                  VENDOR     
5000001060INSIGHT                            VENDOR     
5000001061LAROUSSE BILINGUAL                 VENDOR     
5000001066Thresholds Transition              VENDOR     
5000001067KING PRINTING CO  INC              VENDOR     
5000001071THRESHOLDS REHABILITATION INDUSTRIEVENDOR     
5000001076CASSETTE SERVICES                  VENDOR     
5000001081RIVERSIDE SCORING CENTER           VENDOR     
5000001082WEBCRAFTERS                        VENDOR     
5000001083RRD-CRAWFORDSVILLE                 VENDOR     
5000001086QUAD GRAPHICS - VERSAILLES         VENDOR     
5000001091MAPLE PRESS                        VENDOR     
5000001096EDWARDS BROTHERS                   VENDOR     
5000001097COURIER/BOOKMART PRESS             VENDOR     
5000001098WALSWORTH PUBLISHING COMPANY INC   VENDOR     
5000001099HUNG HING OFFSET PRINTING CO LTD   VENDOR     
5000001100WEBCRAFTERS INC                    VENDOR     
5000001101QUAD GRAPHICS - MARTINSBURG        VENDOR     
5000001102QUEBECOR WORLD DUBUQUE             VENDOR     
5000001103RR DONNELLEY                       VENDOR     
5000001106QUEBECOR WORLD- KINGSPORT          VENDOR     
5000001107QUEBECOR WORLD- BUFFALO            VENDOR     
5000001111KEY CURRICULUM PRESS               VENDOR     
5000001112THE BOOKSOURCE INC                 VENDOR     
5000001113VAST USA INC                       VENDOR     
5000001114RIVERDEEP                          VENDOR     
5000001116GEONOVA PUBLISHING INC             VENDOR     
5000001117VICKS LITHOGRAPH & PRINTING CORPORAVENDOR     
5000001121NEOPRINT, INC                      VENDOR     
5000001126MEASUREMENT INCORPORATED           VENDOR     
5000001131YANKEE PUBLISHING CO               VENDOR     
5000001132FIDELITY CONTAINER CORPORATION     VENDOR     
5000001133ENNIS INC                          VENDOR     
5000001134DATA RECOGNITION CORP              VENDOR     
5000001135MOORE LANGEN PRINTING              VENDOR     
5000001136MEMORY SUPPLIERS                   VENDOR     
5000001141MOORE WALLACE                      VENDOR     
5000001142INTERNATIONAL PAPER                VENDOR     
5000001143PEARSON EDUCATION                  VENDOR     
5000001144PRO-ED                             VENDOR     
5000001145A DAIGGER & COMPANY                VENDOR     
5000001146FRUEND CAN COMPANY                 VENDOR     
5000001151RENAISSANCE LEARNING INC           VENDOR     
5000001152CPP, INC                           VENDOR     
5000001156GINTZLER GRAPHICS INC              VENDOR     
5000001157PROCON                             VENDOR     
5000001161INSIGHT                            VENDOR     
5000001166RRD-GM-DOMESTIC ONLY               VENDOR     
5000001171ALL OUT INC                        VENDOR     
5000001172RR DONNELLEY/PONTIAC               VENDOR     
5000001173TOOMEY ASSOCIATES                  VENDOR     
5000001174SCANTRON                           VENDOR     
5000001176CHARLES C THOMAS PUBLISHER LTD     VENDOR     
5000001181CHAMBERS HARRAP PUBLISHERS         VENDOR     
5000001182PARENTS' CHOICE FOUNDATION         VENDOR     
5000001183SHENS ART PRINTING CO LTD          VENDOR     
5000001186EDWARDS BROTHERS                   VENDOR     
5000001191RESOURCE DATA PRODUCTS             VENDOR     
5000001196TAURUS DISPLAY CO                  VENDOR     
5000001197POZZO GROS MONTI EDITORE S.R.L     VENDOR     
5000001201DICKINSON PRESS INC                VENDOR     
5000001206DK                                 VENDOR     
5000001211VIDEO EXPRESS                      VENDOR     
5000001216UNIVERSAL GRAPHICS                 VENDOR     
5000001217RENAISSANCE LEARNING INC           VENDOR     
5000001221CINEMAGNETICS                      VENDOR     
5000001222WORD FINDING MATERIALS             VENDOR     
5000001223PARENTS OBSERVATIONS OF INFANTS    VENDOR     
5000001224MANSON WESTERN CORPORATION         VENDOR     
5000001225TASCO INDUSTRIES                   VENDOR     
5000001226ACCURATE OUTSOURCING               VENDOR     
5000001231STATE OF OKLAHOMA                  VENDOR     
5000001232RIPON COMMUNITY PRINTERS           VENDOR     
5000001236DISCOVERY EDUCATION INC            VENDOR     
5000001237PIMLICO BOOK COMPANY               VENDOR     
5000001241GRAPHICS MANAGEMENT                VENDOR     
5000001242ARVATO DIGITAL SERVICES            VENDOR     
5000001246LIGHTNING SOURCE INC               VENDOR     
5000001251RUNCO OFFICE SUPPLY                VENDOR     
5000001252SCHLEICH                           VENDOR     
5000001256THE GEONOVA GROUP                  VENDOR     
5000001261UNIVERSAL MUSIC ENTERPRISE (UME)   VENDOR     
5000001262ABOVE ALL MULTIMEDIA PARTNERS LLC  VENDOR     
5000001263MCGRAW HILL COMPANIES              VENDOR     
5000001266SERVICE PALLET INC                 VENDOR     
5000001271NETWORK RESOURCE SOLUTIONS, INC    VENDOR     
5000001272ARVATO DIGITAL SERVICES            VENDOR     
5000001273ALPHAGRAPHICS                      VENDOR     
5000001276CHARLESBRIDGE PUBLISHING           VENDOR     
5000001277NORTHLAND BOOKS                    VENDOR     
5000001281LIGHTNING SOURCE INC               VENDOR     
5000001286FLAMBEAU, INC                      VENDOR     
5000001291LERNER PUBLISHING GROUP INC        VENDOR     
5000001292UNIVERSAL MUSIC GROUP DISTRIBUTION VENDOR     
5000001296BR PRINTERS                        VENDOR     
5000001297BOSTON AGENCY                      VENDOR     
5000001298DYNASTY AGENCY INC                 VENDOR     
5000001299MODEL CLUB INC                     VENDOR     
5000001300ENNIS INC                          VENDOR     
5000001301CAMERON INC                        VENDOR     
5000001302RRD-LONG PRAIRIE                   VENDOR     
5000001303PROGRAMMING CONCEPTS LTD           VENDOR     
5000001304SUNBURST DIGITAL INC               VENDOR     
5000001305SHERSTON SOFTWARE LTD              VENDOR     
5000001306CHRONICLE BOOKS                    VENDOR     
5000001307VIATECH PUBLISHING SOLUTIONS INC   VENDOR     
5000001308ZEBRA PRINT SOLUTIONS INC          VENDOR     
5000001309INFOSOURCE INC                     VENDOR     
5000001311MOORE WALLACE                      VENDOR     
5000001316STROMBERG ALLEN & CO               VENDOR     
5000001321ADTECH SYSTEMS INC                 VENDOR     
5000001322ALLIANCE                           VENDOR     
5000001323ALLIANCE                           VENDOR     
5000001324ROCK-TENN CONVERTING COMPANY       VENDOR     
5000001325PRO-CON                            VENDOR     
5000001326ATTAINMENT COMPANY INC             VENDOR     
5000001331PROGRAMMING CONCEPTS LTD           VENDOR     
5000001332BOOK MART PRESS INC                VENDOR     
5000001336LEHIGH LITHOGRAPHICS               VENDOR     
5000001337PHOENIX COLOR CORP                 VENDOR     
5000001341NORDICA PRINTING COMPANY LIMITED   VENDOR     
5000001342FISHER SCIENTIFIC COMPANY LLC      VENDOR     
5000001343TECHNI FORMS INC                   VENDOR     
5000001344MULTI HEALTH SYSTEMS INC           VENDOR     
5000001345DUSOBOX CORPORATION                VENDOR     
5000001346FITZHENRY & WHITESIDE LIMITED      VENDOR     
5000001351MULTI HEALTH SYSTEMS INC           VENDOR     
5000001356TCREATIVE, INC                     VENDOR     
5000001357DALMATIAN PRESS LLC                VENDOR     
5000001358KINETIC BOOK COMPANY               VENDOR     
5000001361SYNERGISTICS LLC                   VENDOR     
5000001362VIDEO TRANSFER INC                 VENDOR     
5000001363K & M PRINTING CO                  VENDOR     
5000001364K & M PRINTING                     VENDOR     
5000001365CREATIVE VINYL PRODUCTS, INC       VENDOR     
5000001366JS PALUCH CO INC                   VENDOR     
5000001371EINSTRUCTION CORPORATION           VENDOR     
5000001372EINSTRUCTION CORPORATION           VENDOR     
5000001376CENGAGE LEARNING                   VENDOR     
5000001381GH LLC                             VENDOR     
5000001386DESIGNERS PRESS INC                VENDOR     
5000001387SOUTHEASTERN PRINTING CO INC       VENDOR     
5000001391CITATION GRAPHICS                  VENDOR     
5000001396TSUNA INC                          VENDOR     
5000001397TSUNA INC                          VENDOR     
5000001398LOGOSPEED PROMOTIONAL PRODUCTS LLC VENDOR     
5000001401MARSHALL CAVENDISH INTERNATIONAL (SVENDOR     
5000001406GEORGE CREWS                       VENDOR     
5000001407WL-PRESS OF OHIO-BRIMFIELD-OHIO DIVVENDOR     
5000001408WL-CYCLE SOFTWARE-BLOOMINGTON-     VENDOR     
5000001409WL-EDWARDS BROTHERS- ANN ARBOR     VENDOR     
5000001410WL-EDWARDS BROTHERS- GENEVA-DIGITALVENDOR     
5000001411WL-WILLIAMS LEA INC                VENDOR     
5000001412WL-BIND RITE/UINON GRAPHICS - CARLSVENDOR     
5000001413WL-BRADFORD & BIGELOW - NEWBURYPORTVENDOR     
5000001414WL-CARDINAL COLORPRINT - CHICAGO - VENDOR     
5000001415WL-CARDINAL COLORPRINT - CHICAGO - VENDOR     
5000001416SOUTHERN BOOK COMPANY-RANDLEMAN    VENDOR     
5000001417WL-COURIER - STOUGHTON             VENDOR     
5000001418WL-COURIER - WESTFORD              VENDOR     
5000001419WL-MOORE LANGEN                    VENDOR     
5000001420WL-MERCURY PRINT PRODUCTIONS-ROCHESVENDOR     
5000001421WL-COURIER - KENDALLVILLE          VENDOR     
5000001426WL-MERCURY PRINT PRODUCTIONS-ROCHESVENDOR     
5000001427WL-MAZER-JOHNSON CITY-LYNN ROAD    VENDOR     
5000001428WL-MAZER-DAYTON-NEFF ROAD          VENDOR     
5000001429WL-PRESS OF OHIO-WOODSTOCK-DB HESS-VENDOR     
5000001430WL- CT PRINTING- HONG KONG (HQ)    VENDOR     
5000001431WL-EDWARDS BROTHERS- LILLINGTON-   VENDOR     
5000001432WL-LEHIGH PHOENIX-HAGERSTOWN       VENDOR     
5000001433WL-LEHIGH PHOENIX-MILWAUKEE        VENDOR     
5000001434WL-MAPLE PRESS-YORK (HQ)           VENDOR     
5000001435WL-MAPLE PRESS-KIRKWOOD- VAIL BALLOVENDOR     
5000001436WL-CITATION GRAPHICS - PENNSAUKEN -VENDOR     
5000001437WL-CITY DIECUTTING - MORRISTOWN - HVENDOR     
5000001438WL-CONFORT - LONG ISALND CITY - HQ VENDOR     
5000001439WL-CORPORATE GRAPHICS - MADISON - HVENDOR     
5000001440WL-CYCLE SOFTWARE - PLANO - DALLAS VENDOR     
5000001441WL-CYCLE SOFTWARE - MILPITAS       VENDOR     
5000001442WL-DG3 NORTH AMERICA - JERSEY CITY VENDOR     
5000001443WL-EVA-TONE - CLEARWATER - HQ      VENDOR     
5000001444WL-EVA-TONE - MOCHSVILLE           VENDOR     
5000001445WL-HENRY WURST-NORTH KANSAS CITY-H VENDOR     
5000001446WL-HI LITER GRAPHICS - BURLINGTON -VENDOR     
5000001447WL-HI LITER GRAPHICS - MENOMONEE FAVENDOR     
5000001448WL-HI LITER GRAPHICS - MENOMONEE FAVENDOR     
5000001449WL-LEHIGH PRESS - BROADVIEW - HQ   VENDOR     
5000001450WL-OFFSET IMPRESSIONS - READING HQ VENDOR     
5000001451WL-OFFSET IMPRESSIONS -  READING - VENDOR     
5000001452WL-PADGETT PRINTING - DALLAS - HQ  VENDOR     
5000001453WL-QUAD/GRAPHICS - SUSSEX - HQ     VENDOR     
5000001454WL-QUAD/GRAPHICS - HARTFORD        VENDOR     
5000001455WL-DUSOBOX-ORLANDO (HQ)            VENDOR     
5000001456WL-QUAD/GRAPHICS - LOMIRA          VENDOR     
5000001457WL -QUAD/GRAPHICS - MARTINSBURG    VENDOR     
5000001458WL -QUAD/GRAPHICS - PEWAUKEE       VENDOR     
5000001459WL-QUAD/GRAPHICS - RENO            VENDOR     
5000001460WL-QUAD/GRAPHICS - THE ROCK        VENDOR     
5000001461WL-QUAD/GRAPHICS - SARATOGA SPRINGSVENDOR     
5000001462WL-QUAD/GRAPHICS - WEST ALLIS      VENDOR     
5000001463WL-QUAD/GRAPHICS - OKLAHOMA CITY   VENDOR     
5000001464WL-QUEBECOR WORLD-NEW YORK-HQ      VENDOR     
5000001465WL-QUEBECOR WORLD-DEPEW-BUFFALO    VENDOR     
5000001466WL-QUEBECOR WORLD-LEOMINSTER-EUSEY VENDOR     
5000001467WL-QUEBECOR WORLD-FAIRFIELD        VENDOR     
5000001468WL-QUEBECOR WORLD-MARTINSBURG      VENDOR     
5000001469WL-QUEBECOR WORLD-TAUNTON          VENDOR     
5000001470WL-QUEBECOR WORLD-VERSAILLES       VENDOR     
5000001471WL-QUEBECOR WORLD-DUBUQUE          VENDOR     
5000001472WL-QUEBECOR WORLD-DALLAS           VENDOR     
5000001473WL-QUEBECOR WORLD-MIDLAND          VENDOR     
5000001474WL-QUEBECOR WORLD-ST CLOUD         VENDOR     
5000001475WL-QUEBECOR WORLD-LEBANON          VENDOR     
5000001476WL-SCHIELE GRAPHICS-ELK GROVE VILLAVENDOR     
5000001477WL-SCHIELE GRAPHICS-ELK GROVE VILLAVENDOR     
5000001478WL-SEGERDAHL-WHEELING-HQ           VENDOR     
5000001479WL-SOUTHEASTERN PRINTING-STUART-HQ VENDOR     
5000001480WL-SOUTHEASTERN PRINTING-LONGWOOD  VENDOR     
5000001481WL-SOUTHERN CONTAINER-NEWARK-HQ    VENDOR     
5000001482WL-SPECIALTY PROMOTIONS-NILES-HQ   VENDOR     
5000001483WL-SYNERGY GRAPHICS-PLYMOUTH-HQ    VENDOR     
5000001484WL-TOPPAN PRINTING-SOMERSET-HQ     VENDOR     
5000001485WL-TRANSCONTINENTAL-MONTREAL-HQ    VENDOR     
5000001486WL-TRANSCONTINENTAL-LOUISEVILLE-GAGVENDOR     
5000001487WL-TRANSCONTINENTAL-SHERBROOKE-    VENDOR     
5000001488WL-TURSACK-MORGANTOWN-HQ           VENDOR     
5000001489WL-UNITED STATES TAPE & LABEL-ST LOVENDOR     
5000001490WL-BIATECH-BAYSHORE-HQ             VENDOR     
5000001491WL-VIATECH-WORCESTER-NORTH EAST DIVVENDOR     
5000001492WL-VIATECH-LANHAM-MID-ATLANTIC DIVIVENDOR     
5000001493WL-VIATECH- ATLANTA -SOUTH EAST DIVVENDOR     
5000001494WL-VIATECH-MORTON GROVE-UPPER MID WVENDOR     
5000001495WL-VIATECH-SPRINGFIELD-MID WEST DIVVENDOR     
5000001496WL-VIATECH-BATAVIA-UPSTATE NEWYORK VENDOR     
5000001497WL-VIATECH-KALAMA-NORTH WEST DIVISIVENDOR     
5000001498WL-VIATECH-HUNTINGTON-SOUTHERN     VENDOR     
5000001499WL-WESTCAVE-AUSTIN- HQ             VENDOR     
5000001500WL-WESTCAVE-AUSTIN-HORIZON PRINTINGVENDOR     
5000001501WL-WESTCAVE-AUSTIN-HORIZON PRINTINGVENDOR     
5000001502WL-WESTERN STATES ENVELOPE -BUTLER-VENDOR     
5000001503WL-WESTERN STATES ENVELOPE -ERLANGEVENDOR     
5000001504WL-WESTERN STATES ENVELOPE -WALBRIDVENDOR     
5000001505WL-WESTERN STATES ENVELOPE -VADNAISVENDOR     
5000001506WL-WESTERN STATES ENVELOPE -MADISONVENDOR     
5000001507WL-BANG PRINTING-BRAINARD-DJ PRINTIVENDOR     
5000001508WL-BANG PRINTING-VALENCIA-DELTA PRIVENDOR     
5000001509WL-CLEAR BLUE INK & PRINTING PROMOTVENDOR     
5000001510WL-CLEAR BLUE INK & PRINTING PROMOTVENDOR     
5000001511WL- CLEAR BLUE INK PRINTING & PROMOVENDOR     
5000001512WL-CLEAR BLUE INK PRINTING & PROMOTVENDOR     
5000001513WL-OPTICAL DISC-RICHMOND (HQ)      VENDOR     
5000001514WL-OPTICAL DISC-EAST FLAT ROCK-SHORVENDOR     
5000001515WL-TAURUS DISPLAY-MOORESTOWN (HQ)  VENDOR     
5000001516WL-TAURUS DISPLAY-READING-ROCK SOLIVENDOR     
5000001517WL-TAURUS DISPLAY-YORK-YORK CONTAINVENDOR     
5000001518WL-TAURUS DISPLAY-EMMAUS-IMPRESS   VENDOR     
5000001519WL-TAURUS DISPLAY-LEVITTOWN-ASSUREDVENDOR     
5000001520WL-TAURUS DISPLAY-CHICAGO-IDEAL  BOVENDOR     
5000001521WL-TAURUS DISPLAY-DETROIT-MICHIGAN VENDOR     
5000001522WL-TAURUS DISPLAY-ALSIP-ADVERTISINGVENDOR     
5000001523WL-TAURUS DISPLAY-WARMINSTER-PICCARVENDOR     
5000001524WL-TAURUS DISPLAY-MISSISSAUGA-ANNANVENDOR     
5000001525WL-TAURUS DISPLAY-MOORESTOWN-PERFECVENDOR     
5000001526WL-TAURUS DISPLAY-WACO-PACKAGING   VENDOR     
5000001527WL-TAURUS DISPLAY-HARRISONBURG-PACKVENDOR     
5000001528WL-WORZALLA PUBLISHING-STEVENS PONTVENDOR     
5000001529WL-EDWARDS BROTHERS-BLUE RIDGE SUMMVENDOR     
5000001530WL-EDWARDS BROTHRES-CHICAGO-       VENDOR     
5000001531WL-CREATIVE VINYL-ELK GROVE VILLAGEVENDOR     
5000001532WL-PRESS OF OHIO-DOWNERS GROVE (HQ)VENDOR     
5000001533WL-EDWARDS BROTHERS- LILLINGTON-CARVENDOR     
5000001536WL-EDWARDS BROTHERS-LANDOVER-      VENDOR     
5000001537WL-EDWARDS BROTHERS-JACKSON-       VENDOR     
5000001538WL-ALL OUT-WOODRIDGE (HQ)-         VENDOR     
5000001539WL-WALSWORTH PUBLISHING-MARCELINE (VENDOR     
5000001540WL-WALSWORTH PUBLISHING-MARCELINE- VENDOR     
5000001541WL-WALSWORTH PUBLISHING-OMAHA-     VENDOR     
5000001542WL-ELEGANT ACQUISITION-CICERO (HQ)-VENDOR     
5000001543WL-TECHNICOLOR ENTERTAINMENT-      VENDOR     
5000001544WL-TECHNICOLOR- HOME ENTERTAINMENT-VENDOR     
5000001545WL-TECHNICOLOR- HOME ENTERTAINMENT-VENDOR     
5000001546WL- CT PRINTING- SHENZEN-CHINA FACTVENDOR     
5000001547WL-LEO PAPER PRODUCTS-HONG KONG (HQVENDOR     
5000001548WL-LEO PAPER PRODUCTS-GUANGZHOU (HQVENDOR     
5000001549WL-QUEBECOR WORLD-MEXICO           VENDOR     
5000001550WL-VIATECH PUBLISHING UK (HQ)      VENDOR     
5000001551WL-EDWARD BROTHERS-UK DIGITAL BOOK VENDOR     
5000001552WL-CAPITAL SPECTRUM & CSI AUSTIN (HVENDOR     
5000001553WL-MAPLE PRESS-YORK-YORK DISTRIBUTIVENDOR     
5000001554WL-MAPLE PRESS-FREDERICKSBURG-     VENDOR     
5000001555WL-TURNKEY SOLUTIONS- LA VISTA (HQ)VENDOR     
5000001556WL-MAPLE PRESS-MOUNT JOY-MOUNT JOY VENDOR     
5000001557WL-MIDWEST PROMOTIONAL-SUMMIT (HQ) VENDOR     
5000001558WL-KASE PRINTING - HUDSON (HQ)     VENDOR     
5000001559WL-FAILSAFE MEDIA- LAKE ZURICH (HQ)VENDOR     
5000001560WL-FAILSAFE MEDIA - BROOKLYN       VENDOR     
5000001561WL-FAILSAFE MEDIA- RICHMOND        VENDOR     
5000001562WL-FAILSAFE MEDIA- IRVINE          VENDOR     
5000001563WL-FAILSAFE MEDIA - HOFFMAN ESTATESVENDOR     
5000001564WL-FAILSAFE MEDIA- ELK GROVE VILLAGVENDOR     
5000001565WL-FAILSAFE MEDIA - TULSA          VENDOR     
5000001566BEYOND QUESTION LEARNING TECH INC  VENDOR     
5000001567HARPERCOLLINS PUBLISHERS           VENDOR     
5000001571WL-TECHNICOLOR- HOME ENT-NILES     VENDOR     
5000001572WL-TECHNICOLOR- HOME ENT-NASHVILLE VENDOR     
5000001573WL-TECHNICOLOR- HOME ENT-MONTEZUMA VENDOR     
5000001574WL-TECHNICOLOR- HOME ENT-CARROLLTONVENDOR     
5000001575WL-TECHNICOLOR- HOME ENT-INDIANAPOLVENDOR     
5000001576WL-MAZER-DAYTON- POE AVENUE        VENDOR     
5000001577WL-MAZER -JOHNSON CITY -ROLLING HILVENDOR     
5000001578WL-BERTELSMANN-VALENCIA - ARVATO DIVENDOR     
5000001579WL-BERTELSMANN- VALENCIA - CALIFORNVENDOR     
5000001580WL-BERTELSMANN- VALENCIA - CALIFORNVENDOR     
5000001581WL-BERTELSMANN- WOODLAND HILLS-    VENDOR     
5000001582WL-BERTELSMANN- FREEMONT- CALIFORNIVENDOR     
5000001583WL-BERTELSMANN- LOUISVILLE-KENTUCKYVENDOR     
5000001584WL-BERTELSMANN- WAYNE-MICHIGAN     VENDOR     
5000001585WL-BERTELSMANN- WEAVERVILLE-       VENDOR     
5000001586WL-BERTELSMANN- RESEARCH TRIANGLE PVENDOR     
5000001587WL-BERTELSMANN- RENO-NEVADA CALL CTVENDOR     
5000001588WL-BERTELSMANN- NEW YORK           VENDOR     
5000001589WL-BERTELSMANN- DUNCAN-SC-112 HIDDEVENDOR     
5000001590WL-BERTELSMANN- DUNCAN-SC-120 HIDDEVENDOR     
5000001591WL-BERTELSMANN- DUNCAN-SC-15       VENDOR     
5000001592WL-BERTELSMANN- DULLES -DUNCAN     VENDOR     
5000001593WL-BERTELSMANN- KIRKLAND-WASHINGTONVENDOR     
5000001594WL-BERTELSMANN- PLEASANT PRAIRIE - VENDOR     
5000001595WL-BERTELSMANN- KITCHENER-ONTARIO  VENDOR     
5000001596WL-BERTELSMANN- SCARBOROUGH -ONTARIVENDOR     
5000001597WL-BERTELSMANN- PHILLIPINES        VENDOR     
5000001598WL-BERTELSMANN- MEXICO (CALL CENTERVENDOR     
5000001599WL-HENRY N SAWYER - CHARLESTON (HQ)VENDOR     
5000001600WL-NEOPRINT-CHELMSFORD (HQ)        VENDOR     
5000001601IMAGO SALES (USA) INC              VENDOR     
5000001602WL-WINTER & COMPANY-QUINCY (HQ)    VENDOR     
5000001603WL-MAIN CHOICE HOP KEE FACTORY-HONGVENDOR     
5000001604WL-TWP AMERICA-NEW YORK (HQ)       VENDOR     
5000001605WL-TWP AMERICA-SINGAPORE           VENDOR     
5000001606WL-TWP AMERICA-MALAYSIA-JALAN TAMPOVENDOR     
5000001607WL-TWP AMERICA-MALAYSIA-PENAWAR    VENDOR     
5000001608WL-PHOENIX LITHOGRAPHING-PHILADELPHVENDOR     
5000001609WL-PHOENIX LITHOGRAPHING-MARLTON   VENDOR     
5000001610WL-PHOENIX LITHO-BORDENTOWN-HEDDINGVENDOR     
5000001611WL-PHOENIX LITHO-BORDENTOWN-RICHARDVENDOR     
5000001612WL-PHOENIX LITHOGRAPHING-NEW YORK  VENDOR     
5000001613WL-COMMERCIAL COMMUNICATIONS-HARTLAVENDOR     
5000001614WL-COMMERCIAL COMMUNICATIONS-TEMPE VENDOR     
5000001615WL-COMMERCIAL COMMUNICATIONS-GREEN VENDOR     
5000001616WL-COMMERCIAL COMMUNICATIONS-CINCINVENDOR     
5000001617WL-COMMERCIAL COMMUNICATIONS-DENVERVENDOR     
5000001618WL-CREATIVE RETAIL PACKAGING-HOUSTOVENDOR     
5000001619WL-JOHNSBYRNE-NILES-7350 CRONAME RDVENDOR     
5000001620WL-JOHNSBYRNE-NILES-7450 CRONAME RDVENDOR     
5000001621WL-JOHNSBYRNE-NILES-WEST OAKTON ST.VENDOR     
5000001622WL-STARLITE DEVELOPMENT-HONG KONG- VENDOR     
5000001623WL-STARLITE DEVELOPMENT-SHENZHEN-  VENDOR     
5000001624WL-STARLITE DEVELOPMENT-GUANGZHOU- VENDOR     
5000001625WL-STARLITE DEVELOPMENT-LIU HE TOWNVENDOR     
5000001626WL-STARLITE DEVELOPMENT-SHAOGUAN-  VENDOR     
5000001627WL-STARLITE DEVELOPMENT-SINGAPORE- VENDOR     
5000001628WL-JOHN P. POW-BOSTON (HQ)         VENDOR     
5000001629WL-OPTICAL EXPERTS MANUFACTURING-  VENDOR     
5000001630WL-OPTICAL EXPERTS MANUFACTURING-  VENDOR     
5000001631WL-MALLOY-ANN ARBOR (HQ)           VENDOR     
5000001632WL-PACKAGING HOUSE-CHICAGO (HQ)    VENDOR     
5000001633WL-AJ'S PREMIER PRINTING-ANTIOCH (HVENDOR     
5000001634WL-AJ'S PREMIER PRINTING-ELK GROVE VENDOR     
5000001635WL-AJ'S PREMIER PRINTING-CHICAGO-OFVENDOR     
5000001636WL-AJ'S PREMIER PRINTING-ADDISON-DIVENDOR     
5000001637WL-FISHER-CEDAR RAPIDS (HQ)        VENDOR     
5000001638WL-FISHER-HIAWATHA                 VENDOR     
5000001639WL-HUNG HING OFF-SET PRINTING-HONG VENDOR     
5000001640WL-HUNG HING-SHENZHEN-HUNG HING    VENDOR     
5000001641WL-HUNG HING-HE SHAN CITY          VENDOR     
5000001642WL-HUNG HING-ZHONGSHAN-YI XIAN RD  VENDOR     
5000001643WL-HUNG HING-SHENZHEN-FU YONG HI TEVENDOR     
5000001644WL-HUNG HING-ZHONGSHAN-NATIONAL HWYVENDOR     
5000001645WL-KHL PRINTING-SINGAPORE (HQ)     VENDOR     
5000001646WL-KHL PRINTING-SHAH ALAM-MALAYSIA VENDOR     
5000001647WL-NORDICA -HONG KONG (HQ)         VENDOR     
5000001648WL-NORDICA-GUANGZHOU-GUANGZHOU PLANVENDOR     
5000001649WL-PAC COM-SOUTH KOREA-GUNPO SI (HQVENDOR     
5000001650WL-PAK 2000-MIRROR LAKE (HQ)       VENDOR     
5000001651WL-PAK 2000-HONG KONG- HANG LUNG PLVENDOR     
5000001652WL-PAK 2000-INDONESIA-TJIWI KIMIA PVENDOR     
5000001653WL-STROMBERG ALLEN-TINLEY PARK (HQ)VENDOR     
5000001654WL-UNIVERSAL MILLENNIUM-WESTWOOD (HVENDOR     
5000001655WL-UINVERSAL MILLENNIUM-SOMERVILLE VENDOR     
5000001656WL-UNIVERSAL MILLENNIUM-ROCKLAND   VENDOR     
5000001657WL-AIM GRAPHIC MACHINERY-BUFFALO GRVENDOR     
5000001658WL-KUEMMEL PRINTING-AUSTIN (HQ)    VENDOR     
5000001661WL-DRUMMOND PRESS-JACKSONVILLE (HQ)VENDOR     
5000001662WL-ADVANCED DUPLICATION SREVICES-  VENDOR     
5000001663WL-DESIGNERS' PRESS-ORLANDO (HQ)   VENDOR     
5000001664WL-MASTER TAPE & LABEL PRINTERS-CHIVENDOR     
5000001665WL-AMERICAN AD SPECIALTIES-ORLANDO VENDOR     
5000001666WL-TOPPAN LEEFUNG PRINTING LTD     VENDOR     
5000001667WL-TOPPAN LEEFUNG PRINTING LTD     VENDOR     
5000001668WL-TOPPAN LEEFUNG PRINTING LTD     VENDOR     
5000001669WL-CHINA TRANSLATION & PRINTING SERVENDOR     
5000001670WL-CHINA TRANSLATION & PRINTING SERVENDOR     
5000001671WL-TCREATIVE-WINTER PARK (HQ)      VENDOR     
5000001672WL-PRINTING  SOURCES-ABINGTON (HQ) VENDOR     
5000001673WL-PRINTING SOURCES-STOUGHTON      VENDOR     
5000001674WL-CENTRAL FLORIDA PRESS-ORLANDO (HVENDOR     
5000001675WL-LEHIGH PRESS-ROCKAWAY           VENDOR     
5000001676WL-CENTRAL FLORIDA PRESS-WILMINGTONVENDOR     
5000001677WL-WEBCRAFTERS-MADISON (HQ)        VENDOR     
5000001678WL-WEBCRAFTERS-MADISON-FORDEM FACILVENDOR     
5000001679WL-WEBCRAFTERS-WESTPORT-WESTPORT   VENDOR     
5000001681WL - BERTELSMANN - BERRYILLE       VENDOR     
5000001682WL - BOUZOUNIS - POWELL (HQ)       VENDOR     
5000001683WL - GREAT NORTHERN - RACINE (HQ)  VENDOR     
5000001684WL - GREAT NORTHERN - APPLETON     VENDOR     
5000001685WL - GREAT NORTHERN - CHIPPEWA FALLVENDOR     
5000001686WL - GREAT NORTHERN - BROOKLYN PARKVENDOR     
5000001687WL - GREAT NORTHERN - OSHKOSH      VENDOR     
5000001688WL - GREAT NORTHERN - APPLETON -   VENDOR     
5000001689WL-R W PATTERSON PRINTING-BENTON   VENDOR     
5000001690WL - SIRIVATANA -CHACHOENGSAO- THAIVENDOR     
5000001691WL - SIRIVATANA -BANGKOK - THAILANDVENDOR     
5000001692WL - SIRIVATANA -RAYONG - THAILAND VENDOR     
5000001693WL - SIRIVATANA -LAOS              VENDOR     
5000001694WL-VICTOR GRAPHICS-BALTIMORE (HQ)  VENDOR     
5000001695WL-ZONE PRODUCT SOURCING -HONG KONGVENDOR     
5000001696WL - ZONE PRODUCT SOURCING - SHANGHVENDOR     
5000001697WL-HAGG PRESS-ELGIN (HQ)           VENDOR     
5000001698WL-GRAPHIX PRODUCTS-WEST CHICAGO(HQVENDOR     
5000001699WL - MILLENIUM INTL -HONGKONG (HQ) VENDOR     
5000001700WL - MILLENIUM INTL -GUANGZHOU- PANVENDOR     
5000001701WL - MILLENIUM INTL -GUANGZHOU-YANGVENDOR     
5000001702WL - PT KAPASARI - INDONESIA (HQ)  VENDOR     
5000001703WL - BERTELSMANN - HICKSVILLE      VENDOR     
5000001704WL - BERTELSMANN - WINCHESTER      VENDOR     
5000001705WL - BERTELSMANN - LOUISVILLE      VENDOR     
5000001706WL-SHAWMUT ADVERTISING-DANVERS (HQ)VENDOR     
5000001711WL-BUNK 1PRODUCTIONS-NEW YORK(HQ)  VENDOR     
5000001712WL-CENTRAL FLORIDA BOX-LAKE MARY (HVENDOR     
5000001713WL-COLOR FILM MEDIA-DARIEN (HQ)    VENDOR     
5000001714WL-COLOR FILM MEDIA-BRIDGEPORT     VENDOR     
5000001715WL-FLAGSHIP PRESS-NORTH ANDOVER (HQVENDOR     
5000001716WL-HOWARD ADKINS COMMUNICATIONS-AUSVENDOR     
5000001717WL-JM PERRONE-HINGHAM (HQ)         VENDOR     
5000001718WL-MAGNETIX-ORLANDO (HQ)           VENDOR     
5000001719WL-SUNRISE HITEK-CHICAGO (HQ)      VENDOR     
5000001721WL-ESKCO-DAYTON (HQ)               VENDOR     
5000001722WL-ST ASSOCIATES-WAKEFIELD(HQ)     VENDOR     
5000001723WL-ST ASSOCIATES-DANVERS           VENDOR     
5000001724WL-ST ASSOCIATES-PEABODY           VENDOR     
5000001725WL-ROCK TENN CONVERTING-WINSTON SALVENDOR     
5000001726WL-ROCK TENN CONVERTING-BETHEL     VENDOR     
5000001727WL-ROCK TENN CONVERTING-BOLINGBROOKVENDOR     
5000001728WL-ROCK TENN CONVERTING-BURBANK    VENDOR     
5000001729WL-ROCK TENN CONVERTING-WEST CHESTEVENDOR     
5000001730WL-ROCK TENN CONVERTING-ONTARIO    VENDOR     
5000001731WL-ROCK TENN CONVERTING-NORCROSS   VENDOR     
5000001732WL-ROCK TENN CONVERTING-PENNSAUKEN VENDOR     
5000001733WL-ROCK TENN CONVERTING-REDMOND    VENDOR     
5000001734WL-ROCK TENN CONVERTING-DEKALB     VENDOR     
5000001735WL-ROCK TENN CONVERTING-HERSHEY    VENDOR     
5000001736WL-ROCK TENN CONVERTING-HUNT VALLEYVENDOR     
5000001737WL-ROCK TENN CONVERTING-RIDGEWAY   VENDOR     
5000001738WL-ROCK TENN CONVERTING-TOTOWA     VENDOR     
5000001739WL-ROCK TENN CONVERTING-TULLAHOMA  VENDOR     
5000001741ANTHOLOGY INC                      VENDOR     
5000001742WL-CENTRAL FLORIDA PRESS-PAWTUCKET VENDOR     
5000001743WL-CENTRAL FLORIDA PRESS-MARYLAND HVENDOR     
5000001744WL-MENASHA PACKAGING-NEENAH-       VENDOR     
5000001745WL-MENASHA PACKAGING-YUKON         VENDOR     
5000001746RRD-AHNAIP (BELT)                  VENDOR     
5000001747WL-NEW YORK AUDIO PRODUCTIONS-NEW YVENDOR     
5000001748WL-VWR FUNDING INC -TONAWANDA      VENDOR     
5000001749WL-WARD'S SCIENCE-ROCHESTER        VENDOR     
5000001750TOPPAN EXCEL (THAILAND) CO LTD     VENDOR     
5000001751RR DONNELLEY (ASIA) TRADING LTD    VENDOR     
5000001752SUNRISE PACKAGING                  VENDOR     
5000001753DIGITAL EXCELLENCE                 VENDOR     
5000001754ATLAS PACKAGING                    VENDOR     
5000001755CENTRAL FLORIDA BOX CORPORATION    VENDOR     
5000001756WL-MENASHA PACKAGING-NEENAH-       VENDOR     
5000001757WL-MENASHA PACKAGING-SANTE FE SPRINVENDOR     
5000001758WL-MENASHA PACKAGING-PHILADELPHIA  VENDOR     
5000001759WL-MENASHA PACKAGING-NEENAH-       VENDOR     
5000001760WL-MENASHA PACKAGING-LAKEVILLE     VENDOR     
5000001761WL-MENASHA PACKAGING-LATROBE       VENDOR     
5000001762WL-CAROLINA CORPORATEWEAR-CHARLOTTEVENDOR     
5000001763WL-LMS ACQUISITIONS-AUSTIN (HQ)    VENDOR     
5000001764WL-NEW TERRITORIES-NORTH KINGSTOWN VENDOR     
5000001765WL-CHEONG MING PRESS FACTORY-      VENDOR     
5000001766WL-CHEONG MING PRESS FACTORY-      VENDOR     
5000001767WL-CHEONG MING PRESS FACTORY-SHANGHVENDOR     
5000001768WL-CHEONG MING PRESS FACTORY-SHENZHVENDOR     
5000001769WL-SPECTRA PRINT-STEVENS POINT (HQ)VENDOR     
5000001770WL-MIMEO.COM-NEW YORK (HQ)         VENDOR     
5000001771WL-MIMEO.COM-MEMPHIS               VENDOR     
5000001772WL-MIMEO.COM-NEWARK                VENDOR     
5000001773WL-ARES PRINTING & PACKAGING-BROOKLVENDOR     
5000001774WL-TRANSCONTINENTAL- BEAUCEVILLE   VENDOR     
5000001775JACKIN USA                         VENDOR     
5000001776LEARNING WRAP-UPS INC.             VENDOR     
5000001777TRANS-TRADE, INC.                  VENDOR     
5000001778LIANT MANUFACTURING SERVICES       VENDOR     
5000001779CPD TECH PACK                      VENDOR     
5000001780ACCUGRAPHICS                       VENDOR     
5000001781QUEBECOR WORLD BOGOTA              VENDOR     
5000001782ALLIED VAUGHN DIGITAL TECHNOLOGY   VENDOR     
5000001783CORLEY PRINTING COMPANY            VENDOR     
5000001784RRD -YORK                          VENDOR     
5000001785QUEBECOR PERU, S. A.               VENDOR     
5000001786CAPITAL PRINTING CO., INC.         VENDOR     
5000001787QUEBECOR WORLD MEXICO              VENDOR     
5000001788NCS PEARSON                        VENDOR     
5000001789INLAND PRESS                       VENDOR     
5000001790BEACON FOUNDATION (CSB)            VENDOR     
5000001791E2E                                VENDOR     
5000001792RUBICON PUBLISHING INC.            VENDOR     
5000001793BANG PRINTING                      VENDOR     
5000001794CENTRAL FLORIDA PRESS              VENDOR     
5000001795QUEBECOR WORLD EUSEY               VENDOR     
5000001796UNIVERSAL MILLENNIUM               VENDOR     
5000001797MAGNETIX CORPORATION               VENDOR     
5000001798RRD-MOORE WALLACE                  VENDOR     
5000001799MENASHA DISPLAY GROUP              VENDOR     
5000001800JARDINE LOGISTIC SERV (HKG) L      VENDOR     
5000001801MONACO LLC                         VENDOR     
5000001802ALLIED-VAUGHN                      VENDOR     
5000001803SNP/SIRIVATANA CO LTD              VENDOR     
5000001804GROUP PUBLISHING                   VENDOR     
5000001805DIDAX INC                          VENDOR     
5000001806OEM INC                            VENDOR     
5000001807CENGAGE LEARNING                   VENDOR     
5000001808SHORTLAND PUBLICATIONS LIMITED     VENDOR     
5000001809QUAD/GRAPHICS, INC.                VENDOR     
5000001810COLOR ART PRINTING INC.            VENDOR     
5000001811KHL CHROMA GRAPHICS PTE LTD        VENDOR     
5000001812VALLEY SALES CORPORATION           VENDOR     
5000001813LITURGICAL PUBLICATIONS INC. (LPI) VENDOR     
5000001814SHUMSKY, INC.                      VENDOR     
5000001815SCANTRON                           VENDOR     
5000001816ONE DELL WAY                       VENDOR     
5000001817TREE OF LIFE IMPORTS               VENDOR     
5000001818ORDER OF ST BENEDICT               VENDOR     
5000001819PARKER PACKAGING                   VENDOR     
5000001820GRAPHICS MANAGEMENT / WORKFLOW     VENDOR     
5000001821HB & CO MULTILITH DEPT             VENDOR     
5000001822SPECTRUM MANUFACTURING             VENDOR     
5000001826LEO PAPER USA                      VENDOR     
5000001827ANIMAL FAIR                        VENDOR     
5000001828IMG LLC                            VENDOR     
5000001829HONG KONG GRAPHICS & PRINTING LTD  VENDOR     
5000001830DIGITAL GRAPHICS                   VENDOR     
5000001831SOUTHWESTERN STATIONERY & BANK     VENDOR     
5000001832STS FILING PRODUCTS INC            VENDOR     
5000001833STANDARD PRINTING COMPANY OF CANTONVENDOR     
5000001834SMARTECH MEDIA CO., LTD            VENDOR     
5000001835INSTITUTE FOR PEACE & JUSTICE      VENDOR     
5000001836PADGETT PRINTING CORPORATION       VENDOR     
5000001837HARPERCOLLINS (BASIC BOOKS)        VENDOR     
5000001838STRATEGIC CONTENT IMAGING (SCI)    VENDOR     
5000001839RRD-GLOBAL TURNKEY SOLUTIONS CO LTDVENDOR     
5000001840VANGUARD MEDIA LLC                 VENDOR     
5000001841CROSS PRESS                        VENDOR     
5000001842AUSTIN DIGITAL PRINTING            VENDOR     
5000001843CATHOLIC RELIEF SERVICES           VENDOR     
5000001844CAPITAL SPECTRUM INC               VENDOR     
5000001845JS PALUCH CO INC                   VENDOR     
5000001846PEARSON HEINEMANN NZ               VENDOR     
5000001847IDEA DISPLAY                       VENDOR     
5000001848WL-ETA/CUISENAIRE-VERNON HILLS-    VENDOR     
5000001849WL-ETA/CUISENAIRE-VERNON HILLS-    VENDOR     
5000001850QUEBECOR WORLD BOGOTA S A          VENDOR     
5000001851FISHER INC                         VENDOR     
5000001852WELDON OWEN EDUCATION LTD.         VENDOR     
5000001853UNIVERSAL GRAPHIX MEXICO           VENDOR     
5000001854HARCOURT ACHIEVE  (OFFICE USE)     VENDOR     
5000001855RRD - DIY GROUP-MUNCIE             VENDOR     
5000001856GINNY'S PRINTING                   VENDOR     
5000001857HAMMOND WORLD ATLAS                VENDOR     
5000001858ARTEX LABEL & GRAPHICS, INC.       VENDOR     
5000001859UNIVERSAL GRAPHIX PERU             VENDOR     
5000001860SHUMSKY ENTERPRISES, INC.          VENDOR     
5000001861SARAVELS, LLC                      VENDOR     
5000001862ELEGANT ACQUISITION, LLC           VENDOR     
5000001863 SAN DAMIANO FOUNDATION            VENDOR     
5000001864L & M BOOKWORKS INC                VENDOR     
5000001865JACOB HOLTZ CO.                    VENDOR     
5000001866REHK - CTPS                        VENDOR     
5000001867BIND-RITE GRAPHICS II              VENDOR     
5000001868BEYOND QUESTION LEARNING TCHLG     VENDOR     
5000001869WELCH PACKAGING                    VENDOR     
5000001870WS PACKAGING GROUP                 VENDOR     
5000001871WESTCAVE PRINTING CORPORATION      VENDOR     
5000001872ACTION PRINTING OF NORMAN          VENDOR     
5000001873TWENTY-THIRD PUBLICATIONS          VENDOR     
5000001874PAULIST PRESS                      VENDOR     
5000001875BAGMASTERS                         VENDOR     
5000001876ANDROMEDA OXFORD LTD.              VENDOR     
5000001877WL-BL MAKEPEACE-BOSTON (HQ)        VENDOR     
5000001878WL-INNOVATIVE USA, INC. - NORWALK (VENDOR     
5000001879ANTHOLOGY INC                      VENDOR     
5000001880QUEBECOR WORLD (USA) INC           VENDOR     
5000001881QUEBECOR WORLD (USA) INC           VENDOR     
5000001882TIEN WAH PRESS                     VENDOR     
50000018831010 PRINTING INTERNATIONAL LTD.   VENDOR     
5000001884OREGON CATHOLIC PRESS INC          VENDOR     
5000001885PHOENIX LITHOGRAPHING CORP         VENDOR     
5000001886OVATION MUSIC SERVICES             VENDOR     
5000001887ACTA PUBLICATIONS                  VENDOR     
5000001888CITATION GRAPHICS                  VENDOR     
5000001889ARES PRINTING AND PACKAGING        VENDOR     
5000001890Label Products                     VENDOR     
5000001891American Library Association       VENDOR     
5000001892WL-WKT COMPANY LIMITED-NEW TERRITORVENDOR     
5000001893WL-WKT COMPANY LIMITED-GUANGDONG   VENDOR     
5000001896WL-STAMPS.COM INC.-LOS ANGELES (HQ)VENDOR     
5000001897WL-MARSHALL CAVENDISH INTERNATION  VENDOR     
5000001898WL-PRO-ED INC-AUSTIN (HQ)          VENDOR     
5000001899WL-VULCAN INFORMATION PACKAGING-VINVENDOR     
5000001901WL-OBLATE MEDIA AND COMMUNICATION  VENDOR     
5000001902WL-OVATION MUSIC SERVICES-EARLWOOD VENDOR     
5000001906WL-BARDES PRODUCTS, INC. - MILWAUKEVENDOR     
5000001907WL-CREATIVE PRINTING SERVICES, INC.VENDOR     
5000001908WL-OXFORD UNIVERSITY PRESS-OXFORD (VENDOR     
5000001909WL-CON MUCHA FE PRODUCTIONS-       VENDOR     
5000001910WL-EXPRESS-A-BUTTON, INC-DAKOTA    VENDOR     
5000001911WL-PUBLISHERS' GRAPHICS LLC        VENDOR     
5000001912WL-BAYARD INC.-NEW LONDON (HQ)     VENDOR     
5000001913WL-BFS BUSINESS PRINTING INC.-BOSTOVENDOR     
5000001914WL-BFS BUSINESS PRINTING INC- BOSTOVENDOR     
5000001916WL-REDEMPTORIST FATHERS-LIGUORI    VENDOR     
5000001917WL-CREATIVE TEACHING LLC-SHELBY ROAVENDOR     
5000001918WL-CREATIVE TEACHING LLC-BUCKEYE DRVENDOR     
5000001919WL-GROUP PUBLISHING INC-LOVELAND (HVENDOR     
5000001920WL-ACTA PUBLICATIONS INC-SKOKIE (HQVENDOR     
5000001921WL-A FIRE WITHIN MUSIC-UPLAND (HQ) VENDOR     
5000001922WL-DIOCESE OF TRENTON-TRENTON (HQ) VENDOR     
5000001926WL-DUNN & CO INC-CLINTON (HQ)      VENDOR     
5000001927WL-WOLTERS KLUWER HEALTH-PHILADELPHVENDOR     
5000001928WL-WOLTERS KLUWER HEALTH-YORK      VENDOR     
5000001931WL-NATIONAL DATA LABEL CORP-BENSENVVENDOR     
5000001932WL-DISCOUNT LABELS LLC-NEW ALBANY (VENDOR     
5000001933UNITED STATES CONFERENCE OF CATHOLIVENDOR     
5000001934WL-NORTH ATTLEBORO JEWELRY CO-     VENDOR     
5000001935WL-DICKINSON PRESS INC-GRAND RAPIDSVENDOR     
5000001936PERFECTION LEARNING                VENDOR     
5000001937WL-OXFORD UNIVERSITY PRESS AUSTRALIVENDOR     
5000001938WL-D & F PRINT SERVICES-GLENDALE HEVENDOR     
5000001939WL-VITRONIC PROMOTIONAL GROUP-MASONVENDOR     
5000001940WL-VITRONIC PROMOTIONAL GROUP-DONIPVENDOR     
5000001941SENTINEL SERVICES INC              VENDOR     
5000001942WL-DIGIPRESS INC DBA SPIRE-DORCHESTVENDOR     
